:020000040800F2
:1000000000000320C51C00080F150008111500088A
:10001000191D0008191D0008191D00080000000026
:1000200000000000000000000000000013150008A0
:100030001515000800000000171500081915000824
:10004000191D0008191D0008191D000829150008B0
:10005000191D0008191D0008191D0008191D0008A8
:10006000191D0008191D0008191D0008191D000898
:10007000191D0008191D0008191D0008191D000888
:10008000191D0008191D0008191D0008191D000878
:10009000191D0008191D0008191D0008191D000868
:1000A000191D0008191D0008191D0008191D000858
:1000B000191D0008191D0008191D0008191D000848
:1000C000191D0008191D0008191D0008191D000838
:1000D0001D150008191D0008191D0008191D00082C
:1000E000191D0008191D0008191D0008191D000818
:1000F000311500082D150008191D0008191D0008EC
:10010000191D0008191D0008191D0008191D0008F7
:10011000191D0008191D0008191D0008191D0008E7
:10012000191D0008191D000823150008191D0008D5
:0C013000191D0008191D0008191D000809
:1001400010B5054C237833B9044B13B10448AFF311
:1001500000800123237010BD9801002000000000E2
:10016000E85A000808B5034B1BB103490348AFF335
:10017000008008BD000000009C010020E85A000833
:1001800001F0FF01102A2BDB10F0070F08D010F848
:10019000013B013A8B422DD010F0070F42B3F6D14C
:1001A000F0B441EA012141EA014122F007047FF065
:1001B00000070023F0E80256083C85EA010586EABC
:1001C000010685FA47F5A3FA87F586FA47F6A5FAF8
:1001D00087F68EB9EED1F0BC01F0FF0102F0070204
:1001E00032B110F8013B013A83EA010313B1F8D1AF
:1001F0000020704701387047002D06BF3546033890
:10020000073815F0010F07D1013015F4807F02BFC8
:10021000013015F4C03F0130F0BC0138704700BF19
:1002200053B94AB9002908BF00281CBF4FF0FF315D
:100230004FF0FF3000F074B9ADF1080C6DE904CE59
:1002400000F006F8DDF804E0DDE9022304B07047B1
:100250002DE9F047089D04468E46002B4DD18A4279
:10026000944669D9B2FA82F252B101FA02F3C2F1AC
:10027000200120FA01F10CFA02FC41EA030E94403D
:100280004FEA1C48210CBEFBF8F61FFA8CF708FB5E
:1002900016E341EA034306FB07F199420AD91CEB36
:1002A000030306F1FF3080F01F81994240F21C8168
:1002B000023E63445B1AA4B2B3FBF8F008FB1033B0
:1002C00044EA034400FB07F7A7420AD91CEB0404E5
:1002D00000F1FF3380F00A81A74240F207816444B5
:1002E000023840EA0640E41B00261DB1D44000233A
:1002F000C5E900433146BDE8F0878B4209D9002D9E
:1003000000F0EF800026C5E9000130463146BDE827
:10031000F087B3FA83F6002E4AD18B4202D3824291
:1003200000F2F980841A61EB030301209E46002D40
:10033000E0D0C5E9004EDDE702B9FFDEB2FA82F295
:10034000002A40F09280A1EB0C014FEA1C471FFAF3
:100350008CFE0126200CB1FBF7F307FB131140EADA
:1003600001410EFB03F0884208D91CEB010103F1A7
:10037000FF3802D2884200F2CB804346091AA4B269
:10038000B1FBF7F007FB101144EA01440EFB00FE3D
:10039000A64508D91CEB040400F1FF3102D2A645A2
:1003A00000F2BB800846A4EB0E0440EA03409CE741
:1003B000C6F12007B34022FA07FC4CEA030C20FAEE
:1003C00007F401FA06F31C43F9404FEA1C4900FA0E
:1003D00006F3B1FBF9F8200C1FFA8CFE09FB18118B
:1003E00040EA014108FB0EF0884202FA06F20BD9FE
:1003F0001CEB010108F1FF3A80F08880884240F24E
:100400008580A8F102086144091AA4B2B1FBF9F091
:1004100009FB101144EA014100FB0EFE8E4508D98C
:100420001CEB010100F1FF346CD28E456AD9023811
:10043000614440EA0840A0FB0294A1EB0E01A142F6
:10044000C846A64656D353D05DB1B3EB080261EB64
:100450000E0101FA07F722FA06F3F1401F43C5E93E
:10046000007100263146BDE8F087C2F12003D84074
:100470000CFA02FC21FA03F3914001434FEA1C47B6
:100480001FFA8CFEB3FBF7F007FB10360B0C43EAA8
:10049000064300FB0EF69E4204FA02F408D91CEB58
:1004A000030300F1FF382FD29E422DD90238634456
:1004B0009B1B89B2B3FBF7F607FB163341EA0341F6
:1004C00006FB0EF38B4208D91CEB010106F1FF3845
:1004D00016D28B4214D9023E6144C91A46EA00463C
:1004E00038E72E46284605E70646E3E61846F8E6CE
:1004F0004B45A9D2B9EB020864EB0C0E0138A3E717
:100500004646EAE7204694E74046D1E7D0467BE7F7
:10051000023B614432E7304609E76444023842E76F
:10052000704700BF4FF0B04382B0DA6C0243DA6428
:10053000DB6C18400190019B02B070474FF0B04354
:1005400082B0D3F84C210243C3F84C21D3F84C318C
:1005500018400190019B02B070470000F0B587B0D1
:1005600001F07AFD01F080FD334A344FD2F890302B
:1005700043F48033C2F8903003F0CCFE1422002103
:1005800001A804F0A5FA00232D48DFF8B8C01C46E6
:100590001D461E4600EBC302917951B150F833104D
:1005A000B94243D0614544D0B1F1904F01D1928816
:1005B00016430133262BEDD101200323029004932F
:1005C00086B10196FFF7AEFF0120FFF7B7FF01A943
:1005D0004FF0904002F098F8002231464FF09040E2
:1005E00002F048F97DB102200195FFF79BFF022040
:1005F000FFF7A4FF01A9114802F086F80F48002276
:10060000294602F037F97CB104200194FFF78AFFF4
:100610000420FFF793FF01A90A4802F075F8094882
:100620000022214602F026F907B0F0BD928815435A
:10063000BFE792881443BCE7000800580004004854
:100640004B5B00080008004870B50C4B88B001AA4D
:1006500003F11806154618685968144603C4083390
:10066000B3422246F7D119889B782180A37003F00A
:1006700009FE284603F02DFB08B070BD305B000872
:10068000002000F087BD13460A460146002000F016
:100690009BBD0000BFF34F8F0549064BCA6802F4AB
:1006A000E0621343CB60BFF34F8F00BFFDE700BF95
:1006B00000ED00E00400FA05704738B54568B5F86C
:1006C0000B30B3F5124F044619D1002001F068FB3E
:1006D0006D7BADB94FF000531A78022A02D11D701C
:1006E000FFF7D8FFFFF7B0FF012003F00FFB29460B
:1006F000012004F06BF800F0BDFF0123237038BD2A
:10070000002003F0A4FAFF280446E9D070B10020CD
:1007100001F038FB42F2107000F0DEFE002003F022
:1007200096FA1038C0B21F28F4D9D9E74FF0005319
:100730001A78022A0AD1187003F0B0FA204601F0A4
:1007400021FB0121002002F0A3F8FAE702221A702F
:10075000014603F08DFA204601F014FB42F21070BE
:1007600000F0BAFE002003F072FA1038C0B21F2861
:10077000F4D9B5E710B54FF0B04288B09368254C76
:1007800043F40043936004F017F8234A2349D2F856
:10079000803023F0070343F00403C2F880300020C8
:1007A00000F0D8FAFFF7DAFE0121084604F00EF84F
:1007B000002001F0BFFA012001F0BCFA022001F094
:1007C000B9FA012001F0DEFA0121002001F0F6FA69
:1007D00003F06AFC124A0021022004F031F9694654
:1007E000104B11480094019303F0A0FB04F58673AD
:1007F000029304F50673039302A840F23C5304F5F8
:1008000049740593049403F00FFD03F04BFC08B00A
:1008100010BD00BFF801032000040058B8020020FA
:10082000813F0008B9060008BB06000870474FF07A
:10083000FF3004F03FB80021022003F0DDBF0220AA
:1008400004F00AB8022004F0C9B80000BFF34F8FCB
:100850000549064BCA6802F4E0621343CB60BFF35C
:100860004F8F00BFFDE700BF00ED00E00400FA0578
:1008700008B5124BD3F84021114B0738010302EBA6
:100880000030B0F1006FD3F8803007D31B0303F4BE
:100890007F2303F10063043B984204D9094804F024
:1008A000A5F9002008BD8958074B994203D0074895
:1008B00004F016F9F5E70120F4E700BF0070000826
:1008C000004000587B5C0008298A4494955C00082D
:1008D0000720FFF7CDBF4120FFF7CABF0C4AD2F86F
:1008E0008020062810B50346D2B209D8014609482F
:1008F00004F0F6F84FF0005300221A70FFF7A6FF3D
:100900000B449342F6D8BDE8104000F0CDB800BFCC
:1009100000400058AF5C000807B5FFF7DCFF012876
:1009200009D0FFF7D5FF01284FF0005331D1002245
:100930001A70FFF78BFF1D4804F058F93A21072081
:10094000FFF7CCFF1A4804F051F94FF4E4440025B6
:10095000E80000F1006000F58223D3E90023694636
:10096000CDE9002300F5E040012200F0CFF8002897
:10097000EED1013C05F10105EAD10E4804F036F94B
:10098000FFF7A6FF012806D00B4804F02FF94FF01F
:1009900000530122CCE7094804F028F93A2141200C
:1009A000FFF79CFF4FF000531C70C2E7C55C0008C6
:1009B000DB5C0008EF5C0008055D0008115D0008C5
:1009C00008B5FFF785FF4FF0005301280CBF002248
:1009D00001221A70FFF73AFF002070472DE9F04F0F
:1009E000012487B0CDE904141746244E0190022259
:1009F0000D4698464FF0000A0392214B1A691203E4
:100A0000FBD4EFF3108B72B6D6F81890B9F1000F43
:100A10000FD1D6F89C301B4A934226D1019BEBB9EB
:100A200002A903A801F008FE4FF48063F3614FF0C0
:100A3000000A8BF31088B9F1000F19D00020FFF7DE
:100A4000CBFF04460028D8D10D4A13695B03FCD4C0
:100A5000B4FA84F0400907B0BDE8F08F3A46434647
:100A60002946012001F0A2FDDEE74FF0010AE0E790
:100A7000BAF1000FE8D00120E1E700BF00140058F0
:100A8000004000580004008082B00146002301931A
:100A9000019B222B05D900220023002002B0FFF782
:100AA0009DBF019B0133F2E7F8B50D46134B144986
:100AB0000746D1F888209A42FBD101F021FD0120A0
:100AC00003F015F900242646AE4209D014B1681C83
:100AD000801BF8BDF019FFF7D7FF01360446F3E796
:100AE000002CF4D1204603F002F901F01BFD044B69
:100AF0004FF480629A602046EBE700BF000400805C
:100B00000014005801460120FFF768BF2DE9F041AD
:100B1000134B0D46134980461746D1F888209A4258
:100B2000FBD101F0EDFC0024083D2646BE420DD06D
:100B30001CB1781C801BBDE8F08108EBC600F5E90C
:100B40000223FFF7DFFF01360446EFE7002CF0D168
:100B500001F0E8FC034B4FF480629A602046EAE71C
:100B60000004008000140058054A906A936A80B21D
:100B70009BB2984200D17047916A18468BB2F8E751
:100B800000280040F0B5194B1A7882424FF0180245
:100B900015D11C7802FB0032E4B25C70527ED2B2F6
:100BA0001A70182202FB0030012202741A78062AF9
:100BB00004D119B94FF0FF32C3F89420F0BD02FB05
:100BC0000034267E94F819C0677E02FB0636FFB219
:100BD000BCF1060F777618BF247E5FFA8CF51EBF36
:100BE00002FB0532E4B21476DBE700BFA800002068
:100BF00010B50F4CD4F89430013316D0FFF7B4FF82
:100C0000D4F8943083423DBF0A4BD4F894201B881B
:100C1000D4F8943038BF9B18181A074B1B785843E8
:100C2000064B1B78D84080B210BD0020FBE700BF08
:100C3000A8000020B8010020B4010020BA01002063
:100C40002DE9F0413D4F3E4BD7F800809A68D8F827
:100C5000003012F4806F03D0DA6812F0040FFAE764
:100C60009A68384D22F480629A602B781822DEB29E
:100C700002FB0353DC68FFF7BBFFA04207D9012347
:100C800085F89830002418214FF0000C1DE02E4A02
:100C9000138810FA83F3A34239BF14880023241A5F
:100CA000012334BFA4B2A4B285F89830EBE701FB6E
:100CB000065301FB0656DA68904297BFDA68C3F81C
:100CC0000CC0121ADA60767EF6B2062EEFD144B965
:100CD000FFF74AFFC5F89400BDE8F041032001F09A
:100CE00045BA012C03D1194B1B78012B01D0013CD3
:100CF000A4B2D8F80020D3685B07FCD5D368DBB278
:100D000063F49063D360124B4FF40022DA60032047
:100D100001F03CFA0A4A53691B0C1B04234353613C
:100D2000FFF722FF3B68C5F894001A68936843F404
:100D300080639360AFF30080BDE8F081BC010020C8
:100D400000280040A8000020B6010020BA010020C1
:100D50000008005870B50D68404A414CCA236B62C8
:100D600053236B629368216043F020039360936880
:100D700003F00703C3F10403DEB23A4B1E7013699C
:100D80004FF4FE0103F4FE0391FAA1F1B1FA81F1EF
:100D9000CB400133D9B2344B19701269334BC2F3D3
:100DA0000E0201321A80531E4B43A3F5A073F34089
:100DB0004FF6FE7293422E4A8CBF4FF6FF739BB2E2
:100DC00013802C4A136843F400231360D2F8803058
:100DD00043F40023C2F88030002837D1264B01218C
:100DE00083F898104FF0FF31C3F89410062118745F
:100DF00083F8280083F8400083F8580083F87000D7
:100E000083F888001970AB6823F48063AB60EB68EB
:100E1000DBB263F49063EB604FF40023D3600320F4
:100E200001F0B4F923681A68936843F4804393602F
:100E300023681B68FF2203215A620846002201F042
:100E40002DF9BDE87040032001F05AB9EB685B054D
:100E5000EED5032001F08AF9EAE700BF0028004040
:100E6000BC010020BA010020B4010020B80100201C
:100E7000B601002000080058A80000202DE9F04726
:100E8000EFF3108772B6DFF8449000254FF0180A90
:100E90000AFB05945FFA85FE94F810C00CF0FF067B
:100EA000BCF1000F0BD10125257487F31088606118
:100EB0006274636081F800E03046BDE8F087013578
:100EC000062DE5D187F310880126F5E7A80000205C
:100ED0002DE9F0410446EFF3108772B6244E254DFC
:100EE000032001F01BF9D6F80080D8F80030CA22A0
:100EF0005A6253225A62182303FB04531B7C022BB1
:100F000025D100212046FFF73DFE2B78062BDAB2D3
:100F100028D1194B9A68D8F8003012F4806F03D0AA
:100F2000DA6812F0040FFAE79A6822F480629A6095
:100F3000DA685207FCD5DA68D2B262F49062DA60FD
:100F40000E4B4FF40022DA60032001F01FF93368E2
:100F50001B68FF225A62032001F0D2F887F3108841
:100F6000BDE8F0816B789342F1D0FFF769FEEEE7C0
:100F7000BC010020A8000020002800400008005804
:100F80002DE9F0474A4C182303FB004305461B7C20
:100F9000022B8A4601D1FFF79BFFEFF3108672B652
:100FA000DFF81081032001F0B9F8D8F800301B6891
:100FB000CA224FF018095A6209FB054753225A62A8
:100FC00002233B74C7F80CA0C7F808A02378062BAF
:100FD000DAB21BD12378DBB263704FF0FF33257098
:100FE00000207A76C4F89430237862789A4257D0F9
:100FF000FFF726FED8F800301B68FF225A62032054
:1010000001F07EF886F31088BDE8F087FFF7F0FD69
:10101000FB680344FB60F968237809FB0343DB6842
:10102000994223D32278D3B209FB0242527ED2B234
:10103000062A04D009FB0242D268914212D2182239
:1010400002FB0341497ECFB206291CBF02FB0742C7
:101050001576182202FB05414F760B7602FB0343FF
:101060005D76C1E709FB03435A7EDCE723782278EB
:101070009342D9B209FB03F30FD023441A7E5FFADF
:1010800082FC09FB02425576797687F818C01D76F6
:101090002378DBB263702570A6E779762344F6E700
:1010A000182303FB0544E368181AE060A2E700BFB9
:1010B000A8000020BC010020104700002DE9F84FD7
:1010C000EFF3108672B62A4D2A492B681B684FF041
:1010D000CA094FF05308C3F82490C3F824809A68D3
:1010E00022F480629A600C781822E7B202FB0414A2
:1010F000227C022A2FD1D4F804B0D4F814A091F89D
:1011000098301BB3637C012BD9B219D13846FFF755
:1011100039FD86F31088A1683846FFF731FF2B6848
:101120001B685A46C3F824903946C3F824805046B9
:10113000FFF7C2FF2B681B68FF225A62BDE8F88FD9
:1011400086F310883846FFF7C3FEE8E7FFF778FD1F
:1011500086F31088EEE7DA685207FCD5DA68D2B277
:1011600062F49062DA60044B4FF40022DA60EFE739
:10117000BC010020A8000020000800584FF0B04338
:1011800082B0DA6C0243DA64DB6C18400190019B98
:1011900002B07047034688B909480A4903614FF411
:1011A000E132C0E900120C2242614FF40042C0E972
:1011B00002338361C261836202F01DB9704700BFD0
:1011C000240200200038014008B550B906480360E9
:1011D0000648074B036001F005FD431EDBB2022BFE
:1011E00000D9002008BD00BF2002002024020020FA
:1011F0000038014010B9024801F090BD704700BFAF
:101200002402002018B9024BD86F01F02FB97047A3
:10121000240200202DE9F043064689B01422002163
:1012200003A803F055FC32683F4B9A4279D1022063
:101230000025FFF7A3FF022440234FF007084FF0DB
:1012400003093A48CDF81C8003A9CDE90334CDE960
:10125000055901F059FA2046FFF790FF80273348DF
:10126000CDF81C8003A9CDE90374CDE9055901F03F
:101270004BFA0120FFF782FF4FF40063CDE90334FE
:10128000CDE905494FF0B04403A94FF09040CDF8A7
:101290001C8001F039FAD4F8883023F0030343F0BE
:1012A0000103C4F88830236E43F480432366236E21
:1012B00003F480432A460F2102932420029B00F06E
:1012C000EDFE242000F01CFFA36C43F00203A36496
:1012D000A36C03F002030193019BA36C43F004038E
:1012E000A364A36C124C03F004030093009B114B06
:1012F00025624FF00F08C4E9003820461023C4E9E6
:101300000235C4E90475C4E9065500F08DFF3A20A2
:10131000F4672A464146A66200F0C0FE3A2000F07B
:10132000EFFE09B0BDE8F08300380140000400483A
:10133000C0010020440402400268044B9A4203D1D9
:10134000034B1B6803B11847704700BF00380140CA
:1013500020020020594B07B54FF0B0444FF4004233
:101360001A6100F051FED4F894305B0113D5D4F823
:101370009430D8000FD401F083FA01F081FAD4F848
:10138000903043F48033C4F89030D4F8903023F494
:101390008033C4F890304FF0B0443F22236D43F4C3
:1013A00080132365236D03F480130093009B444B4B
:1013B0009A609A615A6842F47C125A605A6942F4FF
:1013C0007C125A615A6842F03F025A605A6942F0F0
:1013D0003F025A6101F054FA01F052FAD4F8903009
:1013E00043F00103C4F89030D4F890309907FBD54E
:1013F000D4F8943023F4404343F48043C4F8943049
:10140000304BDA6922F07002DA612F4AD2F858259F
:10141000C2F303220192019A002A45D1DA6922F02F
:101420000F0242F00402DA61264A284CD36943F4E1
:101430000043D361264BD3F880200022C3F88020DC
:10144000D3F8902002F05002C3F8902001F018FA6F
:1014500001F016FA4FF0B0421E48D2F8903023F453
:10146000407343F48073C2F89030D2F8903043F464
:101470000043C2F8903047F6FF730F22C0E9022301
:10148000046001F007FBCA23636253236362A3680D
:1014900023F00703A360FF236362FFF76BF94FF0AC
:1014A000FF3003F007FAFAE70199DA69023922F00E
:1014B0000F0281F304010A43B5E700BF0040005862
:1014C000000C0058000400580070FF1F0028004066
:1014D00000080058B802002070B5044600F0B0FDC6
:1014E000631C054602D000F0B1FD0444064E04E042
:1014F000336923F00403336130BF00F0A1FD431BC7
:10150000A342F5D370BD00BF00ED00E07047704707
:10151000FEE770477047704700F086BD0020FFF778
:1015200069BE0020FFF76EBEFFF7C8BD00F04ABBE2
:1015300000F098BB70B50D4614460E46731B9C42D6
:1015400001DC204670BDAFF3008006F8010BF5E723
:101550004FF0FF3070474FF400534B60002070474E
:1015600001207047002070470B4A116810B50346F0
:1015700009B90A491160106809490A4C0344091B5A
:101580008B4206D903F06CFA0C2303604FF0FF3056
:1015900010BD1360FCE700BFDC02002060140020D7
:1015A0000000032000100000BFF34F8F0549064BD9
:1015B000CA6802F4E0621343CB60BFF34F8F00BFF1
:1015C000FDE700BF00ED00E00400FA0510B5044699
:1015D0004068083002F04CF8003818BF0120207035
:1015E00010BD10B1012803D07047012003F01AB9D3
:1015F00003F026B900B589B00A4A029200230922F5
:10160000CDE90032CDE90533CDE90333A0228021B5
:10161000184602F051F804490C2009B05DF804EBBB
:1016200002F046B9FD5D00080800002008B50E4B29
:10163000D3F88025511C0DD00C48D3F884350270A6
:10164000120A42701A0A8370C2701A0C1B0E0271C1
:10165000437108BD002002F0A1FE02460448002AA2
:1016600018BF1046F5E700BF0070FF1FE002002022
:10167000F75D000870B53A269AB0324600210BA8F3
:1016800003F026FA4423ADF840300823ADF8423089
:101690004FF4A863ADF844301C238DF84830FB2389
:1016A000ADF84A304FF4FA73ADF84C304FF0FF33D9
:1016B00014934FF4A473ADF8543020238DF85930AF
:1016C000744B754809930124744B0A93022509A9A8
:1016D0008DF846508DF847408DF849608DF856409A
:1016E00002F024FB2146284603F070F820466C4A9D
:1016F000002103F0A5F90BA802F0DDFA08B1FFF70D
:1017000005FF0024ADF81C4002F080FAFFF78EFFC1
:1017100006210246204602F025FA4EF66E530A9341
:10172000604B09AAD3F88035099306212E2002F0D8
:1017300019FA5D4A1021182002F014FA5B4A1021B0
:10174000082002F00FFA1821012002F039FA02F005
:10175000D9F80DF12203019308AB009308220DF193
:101760001E032146012002F061F8514BBDF8201004
:10177000009322460723BDF81E0002F08DF907AB47
:10178000BDF82210009322460223BDF81E0002F08D
:1017900083F9204601F0E8FF464B04940121CDE98E
:1017A0000243102208230846CDE900322346224690
:1017B00001F0FEFF01F046FF3F4B40484FF400426E
:1017C0001A6103F013FAFFF786F8012813D13C4899
:1017D00003F00CFA3B4803F009FAFFF79DF8FFF716
:1017E00077F801280AD1384803F000FA4FF0005387
:1017F0001C70FFF7D9FE354803F0F8F9FFF768F8D9
:1018000001283ED1324803F0F1F9324C3A2141200F
:10181000FFF764F80022304B10462146FFF72EFBFD
:1018200020784FF22301FFF7ABFBFFF7FFFE2B4BB6
:1018300042799A710279DA71C2781A7282785A7290
:1018400042789A7202780132DA7243798DF829303F
:1018500003798DF82830C3788DF8273083788DF898
:10186000263043788DF82530037809AA0133062104
:1018700000208DF8243002F075F9FFF7BBFE1AB096
:1018800070BD174803F0B2F93A210720FFF726F898
:10189000BBE700BF28000320CD150008E3150008B2
:1018A000813D00080070FF1FE75D0008D75D00085C
:1018B000205D000807B2010000400058285D0008C4
:1018C0003D5D0008535D00086A5D0008805D00080A
:1018D000985D0008E6020020C10900080800002009
:1018E000AD5D000808B54378052B03D03E2B14D01E
:1018F000012008BD0D4803F079F96420FFF7ECFDE5
:10190000FEF7E6FF012805D14FF0005300221A70C0
:10191000FFF74AFEFFF76EFEEAE7C378012BE7D137
:10192000034B1878FFF7D4FAE2E700BFC45D000864
:10193000E60200200021012002F05EBF012002F03B
:101940008BBF012003F04AB82DE9F7430479012C3D
:10195000054634D0032C6FD0ACB902681378022B43
:1019600014D0072B22D0012B0DD1584B4FF0006122
:1019700019605C74D2781A70026892785A700268A2
:1019800052789A701C7403B0BDE8F0834F4D5048F4
:1019900001236B7403F02AF9FEF79AFF4D4B4E4A70
:1019A0002C74012818BF13462B60ECE701230DF1BE
:1019B000070102208DF8073001F0FCFDE3E74679CE
:1019C0004648424C03F012F94FF0000804F10809B0
:1019D000207CC0F10802B2420CD9002ED3D0404B7B
:1019E000296832461844414403F064F8237C1E44BD
:1019F0002674C8E729684844414403F05BF820682E
:101A000001224946FFF782F80028F8D1D4F800C037
:101A1000D4E90271DCE900238B4208BFBA42D7D176
:101A20000CF108032360237C2074A3F10802C3F1A6
:101A3000080316449844CBE7244C207CC8B9647C46
:101A4000002C37D0012C9ED1FEF745FF012829D16B
:101A50004FF0005301221A70BFF34F8F2149224BE0
:101A6000CA6802F4E0621343CB60BFF34F8F00BF3C
:101A7000FDE704F10805C0F10802FF21284403F046
:101A800027F82368D3E90002D4E902139A4208BF79
:101A90008842D4D0206801222946FFF737F8002871
:101AA000F8D1EEE7FEF714FF0128D1D14FF0005333
:101AB0000022D0E7204602F0CAF8204602F0C7F81C
:101AC0000121002000F0E4FEFAE700BFE802002058
:101AD000065E000800100408007000081E5E000882
:101AE000F002002000ED00E00400FA054FF0B043E2
:101AF00082B0D3F8502142F48012C3F85021D3F8B9
:101B0000503103F480130193019B0A4BD3F8D42086
:101B100042F40072C3F8D4201A6A42F400721A62C6
:101B200040BF20BF044AD36843F40043D36002B0EF
:101B3000704700BF00080058000400584FF0B04341
:101B400007B51A6D42F480121A651B6D03F48013F9
:101B50000193019B084B1A6842F001021A601A684F
:101B600042F480321A602C2000F0CAFA2D2003B013
:101B70005DF804EB00F0C4BA000C0058024A536848
:101B800023F0010353607047000C0058024B4FF4E0
:101B900080329A60704700BF000C0058024A5368B8
:101BA00023F0020353607047000C0058044B4FF4BD
:101BB00000329A605A6822F400325A60704700BFBF
:101BC000000C005810B5164CE368990709D46368F7
:101BD0009A0306D4636843F40033636002F002FBA7
:101BE00010BDE3681B070DD4636818030AD463684B
:101BF00043F4002363600B4B1B6898474FF40023AA
:101C0000A360EDE7064BDA689106E9D45A689202C0
:101C1000E6D45A6842F400125A6002F0B1FADFE7E3
:101C2000000C00580003002010B5084CE3681B07A7
:101C300006D5074B1860636823F40023636010BD6A
:101C400080474FF40023A360F9E700BF000C005861
:101C500000030020024A536823F0080353607047D2
:101C6000000C005810B5104CE3699A0707D563685B
:101C70009B0704D402F0C2FA0223A36010BDE369FB
:101C8000D80706D56368D90703D402F063FA0123A5
:101C9000F3E7054CE3691A07F0D563681B07EDD439
:101CA00002F002FB0823E8E7000C0058D458C450A7
:101CB0000433C4188C42F9D370470360043088425F
:101CC000FBD370470C4885460C480D490D4A00234C
:101CD000FFF7EFFF0C480D490023FFF7F0FF0C481A
:101CE0000C490023FFF7EBFF00F0F4F802F0BEFE12
:101CF000FFF730FBFEE70000000003200800002093
:101D0000A8000020F85F000898010020601400205F
:101D1000E4010320670A0320FEE74FF0B04382B0DE
:101D2000DA6C0243DA64DB6C18400190019B02B06C
:101D300070470000F0B587B004461422002101A8C6
:101D400002F0C6FE0220FFF7E8FF0C4B0C4D33F803
:101D5000146055F82400019600270123CDE90237CD
:101D600001A90223049300F0CFFC55F824003A4661
:101D7000314600F07FFD07B0F0BD00BF3C5E0008BB
:101D800020000020044B33F81010044B012253F8BC
:101D9000200000F06FBD00BF3C5E00082000002066
:101DA000044B33F81010044B002253F8200000F0CD
:101DB00061BD00BF3C5E00082000002030B589B046
:101DC00004460D461422002103A802F081FEBCB98E
:101DD0000420FFF7A2FFC5B9194B33F81430CDE941
:101DE000033501250223CDE90553164B03A953F80A
:101DF000240000F089FC2846FFF76EFB09B030BDD7
:101E0000631E012BE7D80820E3E7012DF6D10C4B28
:101E1000059533F8143003934FF404130493094BDE
:101E200003A953F8240000F06FFC074B0022185759
:101E300001900F2100F032F9019800F061F9DDE71F
:101E4000365E000814000020325E00080C4BD3F808
:101E500040210C4BB2F1006FD3F880300DD31B033F
:101E600003F47F2303F10063043B9A4205D8106812
:101E7000054BC31A5842584170470020704700BFB5
:101E80000070000800400058298A4494054A08B5AB
:101E9000054B93601A6882F308885B68984730BFE7
:101EA00008BD00BF00ED00E00070000808B5FFF7B6
:101EB000CDFF4FF0005328B100221A70BDE8084052
:101EC000FFF7E4BF01221A7007225A70FF229A70AE
:101ED00008BD000008B54FF0B043D3F89420D100FE
:101EE00048D4D3F894309A0144D4FFF7DFFF304A46
:101EF000D2F8883043F47003C2F88830002002F032
:101F00004DFA68B14FF0B0422A4B8179C2F89C304B
:101F1000D2F89C3023F47C5343EA0123C2F89C306E
:101F20004FF0B042136843F48033136002F58042EF
:101F3000136823F0070343F001031360136803F0F1
:101F40000703012BFAD14FF0B04213689B03FCD575
:101F5000936823F0030343F0020393604FF0B04310
:101F60009A6802F00C02082AFAD11A6822F00102DB
:101F70001A6008BD4FF000510B788BB9FFF766FF70
:101F800010B1FFF783FFB2E70B784BB9FFF75EFFA5
:101F900030B901230B7007234B70FF238B70A6E72A
:101FA0004FF000531B78013B012B9ED89FE700BFE9
:101FB00000ED00E0FECAFECA7047000038B5104CC4
:101FC000237805460BB9012038BD00F0FBFC2278D0
:101FD0004FF47A73B3FBF2F3B0FBF3F000F0B2F816
:101FE00004460028EFD10F2DEDD8024629464FF0C8
:101FF000FF3000F053F8034B20461D60E4E700BFBC
:10200000300000203400002010B5032000F034F828
:102010000F20FFF7D3FF044618B9FFF7CDFF204686
:1020200010BD0124FBE70000034A044B11681B7834
:102030000B441360704700BF0403002030000020F1
:10204000014B1868704700BF04030020014B18784B
:10205000704700BF30000020024A536843F001037C
:1020600053607047002004E0024A536843F00203C3
:1020700053607047002004E00749CA6822F4E06218
:102080000302120403F4E063120C134343F0BF6332
:1020900043F40033CB60704700ED00E0164B30B5E1
:1020A000DC68C4F30224C4F10705231D042D28BFF6
:1020B0000425062B4FF0FF338CBF033C002403FAAA
:1020C00005F521EA0501A34022EA0302A140002808
:1020D00041EA0203ACBF00F16040084A4FEA031333
:1020E000B8BF00F00F00DBB2AABF00F56140135487
:1020F00080F8003330BD00BF00ED00E014ED00E0DB
:10210000002808DB0123420900F01F0003FA00F059
:10211000014B43F82200704700E100E000280DDB8E
:102120004309012200F01F0002FA00F02033044AA4
:1021300042F82300BFF34F8FBFF36F8F704700BF8C
:1021400000E100E00138B0F1807F0BD24FF0E023D6
:10215000054A5861F02182F8231000200722986177
:102160001A6170470120704700ED00E0002809DB8C
:102170004309012200F01F0002FA00F04033024A36
:1021800042F82300704700BF00E100E0002809DBAF
:102190004309012200F01F0002FA00F06033024AF6
:1021A00042F82300704700BF00E100E070B5D0E9BD
:1021B00013456560446D14B1D0E916456560D0E9FA
:1021C000105404F01C060124B4406C600468636081
:1021D0008368102B0BBFA260A160E160E26070BD5C
:1021E0000E4A0368416C934288BF0D4A21F00301F7
:1021F0009ABF01F1804202F5023252188264DBB2CA
:10220000084AC264083B1422B3FBF2F3012203F034
:102210001F0302FA03F30365704700BF070402407F
:102220001C0802408008024010B500285FD00168F9
:10223000304B99424FF014044CD82F4A0A44B2FB59
:10224000F4F292004264A3F207430364022380F88D
:102250002530D0E90234234304690A6823434469E2
:10226000234384692343C4692343046A22F4FF425D
:1022700022F07002234313430B60FFF7B1FF836822
:10228000816CB3F5804F04BF00234360426802F0C5
:102290003F030B60D0E91314013A032A4C6021D8A4
:1022A000164A174981651A44013B9200012103F047
:1022B000030301FA03F300214265C3651160114A6B
:1022C000536400230122C36380F8243080F8252062
:1022D000184610BD0C4B0B44B3FBF4F39B00436456
:1022E0000A4BB2E70023C0E91533C365E9E70120D3
:1022F000EFE700BF07040240F8FFFDBF3F82001078
:102300004009024000090240F8FBFDBF0004024002
:1023100070B590F82450012D044639D0012580F87D
:10232000245090F82550012D4FF000064FF0020583
:102330002CD180F82550C6630668356825F0010564
:102340003560FFF733FF026B0368BAB11A6842F0D9
:102350000E021A60A26C1168C90342BF116841F4F1
:1023600080711160626D1AB1116841F48071116061
:102370001A6842F001021A60002070BD1A6822F04B
:1023800004021A601A6842F00A02E2E780F8246048
:102390000220F2E740B190F82530022B06D004234A
:1023A000C363002380F82430012070470368816CE8
:1023B0001A6822F00E021A600A6822F480720A601B
:1023C0001A6822F001021A60D0E9101303F01C020F
:1023D000012393404B60D0E913325A60436D33B10F
:1023E0001A6822F480721A60D0E916325A6001230A
:1023F00080F82530002380F824301846704710B547
:1024000090F82530022B03D00423C363012010BDB4
:1024100003681A6822F00E021A601A6822F001029C
:102420001A60826C136823F480731360D0E9101370
:1024300003F01C02012393404B60D0E913325A6031
:10244000436D33B11A6822F480721A60D0E91632F3
:102450005A60012380F82530836B002480F82440E3
:1024600013B198472046D2E71846D0E7016C426C7A
:10247000036870B402F01C020E681D6804249440C6
:1024800034420ED015F0040F0BD01A6892065EBFCE
:102490001A6822F004021A60036B4C6073B370BCBC
:1024A000184702249440344212D015F0020F0FD086
:1024B0001A68950606D41A6822F00A021A600123E7
:1024C00080F8253000234C6080F82430C36AE5E7AB
:1024D00008249440344211D02C070FD51C6824F0F6
:1024E0000E041C60012303FA02F24A60C36380F801
:1024F0002530002380F82430436BCFE770BC704751
:10250000064B5A69002ABFBF054A9A6002F1883219
:102510009A60BABF5869C00F002070470040005849
:1025200023016745044B5A6942F000425A615869D9
:10253000C043C00F704700BF0040005870B505464B
:10254000FFF77EFD174E04463369D80317D433696D
:10255000D90744BF012232611A0441BF114A4FF426
:102560000041116123F400434CF2FA3213400DD1C3
:102570000C4E336913F480230ED1184605E0FFF7A3
:102580005FFD001BA842DFD3032070BD054A136125
:10259000054A01205360F8E7FFF752FD001BA842EF
:1025A000E7D3F1E700400058080300202DE9F0418F
:1025B000184D98462B78012B06460C46174626D018
:1025C00001232B704FF47A7000236B60FFF7B6FF86
:1025D000A0B9012E16D1104A536943F0010353618B
:1025E0002760BFF36F8FC4F804804FF47A70FFF751
:1025F000A5FF094A536923EA0606566100232B709A
:10260000BDE8F0813946204603F07AFAEDE7022072
:10261000F6E700BF0803002000400058054A536950
:1026200023F4FF6343EAC00040F4803040F002002E
:1026300050617047004000582DE9F041304F3B7821
:10264000012B0546884659D001233B704FF47A7020
:1026500000237B60FFF772FF0446002847D12B68F8
:10266000022B1CD14FF0FF33C8F800306E68D5E95B
:1026700001321344B3420BD93046FFF7CFFF4FF47A
:102680007A70FFF75BFF002836D0C8F80060044678
:102690001C4A536923F4FF6323F002035361194B6F
:1026A0001A6891050FD51A6822F400721A601A6828
:1026B00042F400621A601A6822F400621A601A6812
:1026C00042F400721A600F4B1A6852050FD51A684F
:1026D00022F480621A601A6842F480521A601A6802
:1026E00022F480521A601A6842F480621A60002351
:1026F0003B702046BDE8F0810136B8E70224F8E7D8
:1027000008030020004000582DE9F04F574C0023EB
:102710004FF00F090A6832FA03F501D1BDE8F08FD6
:10272000012505FA03F818EA020200F094804E68C9
:10273000032706F003054FEA430E07FA0EFC6F1E4F
:10274000012F6FEA0C0C32D8876807EA0C0ACF68B1
:1027500007FA0EF747EA0A078760476827EA08087A
:10276000C6F300179F4047EA08074760C76807EAB3
:102770000C088F6807FA0EF747EA0807022DC760B2
:1027800017D14FEAD30800EB880803F0070AD8F8FE
:1027900020704FEA8A0A09FA0AFB27EA0B0B0F6935
:1027A00007FA0AF747EA0B07C8F8207001E0032D83
:1027B000DCD1076805FA0EF507EA0C072F4316F47B
:1027C000403F076047D023F0030707F1804707F534
:1027D000803703F0030CBD684FEA8C0C09FA0CFE3D
:1027E000B0F1904F25EA0E0E37D0214DA84236D0D9
:1027F00005F58065A84234D005F58065A84232D041
:1028000005F58065A8420CBF0425072505FA0CF5DF
:1028100045EA0E05BD602568D74316F4801F0CBF3E
:102820003D4015432560656816F4001F0CBF3D4010
:1028300015436560D4F8805016F4803F0CBF3D40CE
:102840001543C4F88050D4F88450B60354BF3D40BB
:102850001543C4F8845001335CE70025D6E7012511
:10286000D4E70225D2E70325D0E700BF00080058CF
:10287000000400480AB1816170478162704700001E
:10288000024A136843F480731360704700040058D1
:102890000D4B10B55B690C4628B99A0507D500F0B9
:1028A0001FF820B110BD9B0501D400F011F8074AB4
:1028B0001369012C23F00403136101D130BFF1E748
:1028C00040BF20BF20BFEDE70004005800ED00E04E
:1028D000024A136843F480431360704700040058B1
:1028E0000C4A0D49136823F4804313600B4B1B689B
:1028F000B3FBF1F332214B435169890500D533B95C
:10290000536913F4007F14BF032000207047013B7C
:10291000F2E700BF0004005840420F002C000020E6
:102920004FF0B0439A6812F00C020AD11B68224A99
:1029300003F0F003B02B28BFB0231B0952F823008B
:102940007047042A35D0082A07D11B681B4813F4A6
:10295000801F1B4B08BF18467047DA6802F003025D
:10296000022A24D0032A1B6817D11548134913F4EF
:10297000801F08BF01464FF0B043D868DA68DB68B3
:10298000C0F30620C2F302125B0F48430132013349
:10299000B0FBF2F0B0FBF3F0704703F0F003B02BA4
:1029A00028BFB023044A1B0952F82310E3E7034968
:1029B000E1E70248704700BFA45E00080024F4006D
:1029C0000048E80108B5FFF7ABFF4FF0B043044AF9
:1029D0009B68C3F3031352F82330B0FBF3F008BD38
:1029E000445E000808B5FFF7EDFF4FF0B043054A1D
:1029F0009B68C3F3022352F8233003F01F03D8402F
:102A000008BD00BF845E000808B5FFF7DBFF4FF08C
:102A1000B043054A9B68C3F3C22352F8233003F046
:102A20001F03D84008BD00BF845E000870470268DD
:102A300038B5D36823F0A003D3600446FFF700FB4A
:102A400005462368DB689B0601D5002038BDFFF7EB
:102A5000F7FA401BB0F57A7FF3D90320F6E738B5D3
:102A60000368DA685206044601D5002038BD4FF0ED
:102A7000FF32DA60FFF7E4FA05462368DB685B069D
:102A8000F3D4FFF7DDFA401BB0F57A7FF5D90320C8
:102A9000ECE7000038B50446F0B190F8213003F0BF
:102AA000FF021BB980F82020FFF7C0FF022384F843
:102AB0002130284BDB68DB0647D42368CA225A62E0
:102AC00053225A622046FFF7CAFF236830B1FF2223
:102AD0005A62042384F8213001203AE09A68206980
:102AE00022F4E00222F040029A6062689968024390
:102AF000A06902430A439A60E2681A611A69A168F0
:102B0000606942EA01421A61DA6822F08002DA6002
:102B1000DA6C22F00302DA64E269D96C02430A43F8
:102B2000DA649D6815F020050CD12046FFF77FFF81
:102B300040B12368FF225A62042384F8213084F8CC
:102B40002050C9E72368FF225A62012384F821300C
:102B5000002038BD00280040026852E8003F23F002
:102B6000C00342E8003102680029F5D102F10803F0
:102B700053E8003F23F4000302F1080C4CE8003155
:102B80000029F3D12023C0F88830704710B50268BF
:102B900052E8003F23F4907342E8003102680029B4
:102BA000F5D10F4C02F1080353E8003F234002F136
:102BB000080C4CE800310029F4D1C36E012B07D179
:102BC00052E8003F23F0100342E800310029F7D11A
:102BD0002023C0F88C300023C366436710BD00BFBC
:102BE000FEFFFFEFF8B504461346D4F88850202DB9
:102BF00032D1F1B1EAB1E06FA4F85620A4F8542024
:102C000000262122C4F890602165C4F8882090B184
:102C1000124F2268C762124F0763124F2832C0E971
:102C20000D76FFF775FB30B11023C4F89030C4F86F
:102C3000885001200FE0236840221A62226802F1C6
:102C4000080353E8003F43F0800302F1080141E824
:102C500000300028F3D1F8BD0220FCE7692C000801
:102C6000B12C0008BD2C000808B50346806A1B681B
:102C70001B6813F0200317D1A0F85630026802F148
:102C8000080353E8003F23F08003083242E8003194
:102C900002680029F2D152E8003F43F0400342E8C5
:102CA00000310029F7D108BDFEF746FBFBE770476E
:102CB00008B5806AFFF7FBFF08BD7047806A0268AD
:102CC000D0F8883010B5D0F88C409268120606D53E
:102CD000212B04D10023A0F85630FFF73DFF0368F5
:102CE0009B685B0606D5222C04D10023A0F85E3039
:102CF000FFF74CFFD0F8903043F01003C0F890304D
:102D0000FFF7DBFF10BD08B5806A0023A0F85E3036
:102D1000A0F85630FFF7D1FF08BD70470368DA69A5
:102D200019682DE9F04140F60F0632429D680446CD
:102D300010D1960640F1988001F0200605F08057EA
:102D40003E4300F09180436F002B00F08680BDE889
:102D5000F0411847AC4EAD482E400840304300F0DB
:102D60008380D70709D5C80507D501201862D4F894
:102D7000900040F00100C4F89000970709D5E807DB
:102D800007D502201862D4F8900040F00400C4F87F
:102D90009000570709D5E80707D504201862D4F832
:102DA000900040F00200C4F8900017070BD501F026
:102DB0002000304307D008201862D4F8900040F07B
:102DC0000800C4F8900016050AD5480108D54FF44C
:102DD00000601862D4F8903043F02003C4F89030BB
:102DE000D4F89030002B38D093060AD501F020019A
:102DF00005F0805551EA050303D0636F0BB12046FF
:102E000098472368D4F890509B6805F0280503F094
:102E100040031D43204622D0FFF7B8FE2268936886
:102E20005F0617D502F1080353E8003F23F0400383
:102E300002F1080040E800310029F3D1D4F8800005
:102E400040B1734B8363FFF7DAFA30B1D4F88000F6
:102E5000836B7CE72046FFF730FFBDE8F081FFF78A
:102E60002CFFC4F89050F8E7E06E012840F089800C
:102E7000D60640F18680C80640F1838010221A628F
:102E80009A6851064BD5D4F8802011684A6892B2EE
:102E9000002AE2D0B4F85C009042DED9A4F85E20AB
:102EA0000A6892062FD453E8002F22F4807243E878
:102EB00000210029F7D103F1080252E8002F22F087
:102EC000010203F1080040E800210029F3D103F1D9
:102ED000080252E8002F22F0400203F1080040E807
:102EE00000210029F3D12022C4F88C20E16653E8A8
:102EF000002F22F0100243E800210029F7D1D4F876
:102F00008000FFF747FA02232367B4F85E30B4F875
:102F10005C10C91A89B22046FFF7FFFE9DE7B4F89E
:102F20005E108AB2B4F85E1089B2002995D0B4F868
:102F30005C10891A89B200298FD053E8002F22F43F
:102F4000907243E800200028F7D1324D03F10802C7
:102F500052E8002F2A4003F1080646E80020002826
:102F6000F4D12022C4F88C206067E06653E8002F7B
:102F700022F0100243E800200028F7D10223236743
:102F8000C9E7D70209D56E0207D54FF48012204653
:102F90001A62BDE8F04100F05EBA10060BD501F0F0
:102FA000800005F40005284305D0A36F002B3FF4F3
:102FB00054AF2046CBE6570611D54E060FD553E841
:102FC000002F22F0400243E800210029F7D12023FE
:102FD000C4F88830A1672046FEF7AEF93DE7150238
:102FE00006D5480004D52046BDE8F04100F035BACA
:102FF000D3017FF532AF0029BFF62FAF2046BDE8E1
:10300000F04100F029BA00BF0100001020010004C7
:10301000072D0008FEFFFFEF38B50446036821695D
:10302000A2681D68C0690A4361690A437049024386
:1030300029400A431A605A68E16822F440520A4360
:103040005A606C4AA16993421CBF226A11439A6874
:1030500022F06E4222F430620A439A60DA6A616AB0
:1030600022F00F020A43DA62634A934218D14FF00A
:10307000B043D3F8883003F00303013B022B00F286
:1030800094805E4AD35CB0F5004F03F1FF3356D015
:10309000072B16D8DFE803F07F8715841515156D0B
:1030A000544A93420DD14FF0B043D3F8883003F423
:1030B0004063B3F5006F1AD005D853B1B3F5806FF4
:1030C00012D0012009E0B3F5406FFAD14FF400406F
:1030D0000EE0FFF787FC58B900204FF00113A366FC
:1030E0000023C4E91D3338BDFFF71AFCF3E7444859
:1030F0006568444B626A05EB450133F81220B0FB6A
:10310000F2F39942DDD8B3EB053FDAD80023194634
:10311000FDF786F8090241EA10616B080002C01849
:103120002A464FF0000341F10001FDF779F8364BD4
:10313000A0F540729A42C4D82368D860CCE7072B28
:10314000BFD801A252F823F0B13100086F31000856
:10315000C330000869310008C3300008C3300008DC
:10316000C3300008B9310008FFF7DAFB22E0244839
:1031700022E04FF400406368616A224A32F811206D
:10318000B0FBF2F000EB5300B0FBF3F04FF6EF733F
:10319000A0F11002CEE7FFF737FC00289CD0EAE749
:1031A000FFF7BEFBF9E71648E5E7B0F5004FF2D1AF
:1031B000FFF72AFC00288FD06268616A114B33F850
:1031C0001130B0FBF3F3500800EB43004FF6EF7300
:1031D000B0FBF2F0A0F110029A423FF672AF20F07D
:1031E0000F0322689BB2C0F342001843D06073E71C
:1031F000F369FFCF0080004000380140E45E000822
:103200000024F400E85E0008FFFC0F00836ADA0780
:1032100010B506D50168C46A4A6822F40032224318
:103220004A609C0706D50168046B4A6822F4803224
:1032300022434A60590706D50168446B4A6822F464
:10324000802222434A601A0706D50168846B4A68C7
:1032500022F4004222434A60DC0606D50168C46BB2
:103260008A6822F4805222438A60990606D5016852
:10327000046C8A6822F4005222438A605A060FD5F1
:103280000168446C4A6822F480122243B4F5801F1E
:103290004A6005D14A68846C22F4C00222434A6025
:1032A0001B0606D50268C16C536823F400230B4348
:1032B000536010BD2DE9F843DDF8209004460F4619
:1032C000164698462268D36937EA03030CBF0123E8
:1032D0000023B34201D000201EE0B9F1FF3FF2D03D
:1032E000FEF7AEFEA0EB0800484525D8B9F1000F67
:1032F00022D0206803685A07E4D5C56915F008058F
:103300000CD0082505622046FFF740FC0023C4F8D6
:10331000905084F884300120BDE8F883C3691B0510
:10332000D0D54FF4006303622046FFF72FFC202323
:10333000C4F8903084F884500320EDE730B504469B
:10334000002585B0C0F89050FEF77AFE226812681A
:10335000110703461CD56FF07E42009203902A4667
:103360004FF400112046FFF7A5FF039B80B12168B1
:1033700051E8003F23F0800341E80032002AF6D1F3
:103380002023C4F8883084F88420032005B030BDA1
:1033900022681268520723D56FF07E4200924FF4E4
:1033A000800100222046FFF785FFC8B1226852E85D
:1033B000003F23F4907342E8003021680028F5D1E3
:1033C00001F1080353E8003F23F0010301F1080075
:1033D00040E80032002AF3D12023C4F88C30D2E731
:1033E00000202023C4F8883084F88400C4F88C308E
:1033F000E0662067CAE710B5044650B3D0F88830BD
:103400001BB980F88430FDF705FF22682423C4F837
:103410008830136823F0010313602046FFF7FCFD9A
:10342000012816D0A36A13B12046FFF7EFFE2368E8
:103430005A6822F490425A609A6822F02A029A60EE
:103440001A6842F0010220461A60BDE81040FFF7FA
:1034500075BF012010BD7047704770471FB5437896
:10346000FF2B52D1B0F8033040F61342934239D0CB
:1034700040F6174293422DD040F60142934244D188
:103480002349B0F807204B8801339A420ED100231C
:103490008DF80C3000F10D030293B0F80B308DF86D
:1034A0000D3002A8FEF750FA012410E0CB8801335A
:1034B0009A422AD100F10D0301248DF80C400293A9
:1034C000B0F80B308DF80D3002A8FEF73DFA20461B
:1034D00004B010BD0E4A147A002CF8D000231372E9
:1034E0000323D5E70A4BB0F80710DB880133994274
:1034F0000BD100F10A030193437A009300231A468B
:10350000B0F8050000F0FAFACEE70024DFE700BFCC
:10351000440100202DE9F04186B0204D204800F004
:103520009DF82049009508230122022000F008FAA6
:103530002B46002433F8020B05930A274FF00108AD
:1035400004263346CDE90374CDE90148164A0096B6
:10355000022100F045FA2B46144A33F8040B01947B
:10356000CDE9044320230093CDE9024743460221DD
:1035700000F036FA2B460E4A33F8060B0397CDE9D6
:1035800004830323CDE901430096F823022100F0D0
:1035900027FA2C7206B0BDE8F08100BF440100207C
:1035A0005D340008005F0008105F0008205F00081D
:1035B000305F000807B50648012303720091818837
:1035C0000088002200F068FA03B05DF804FB00BF39
:1035D000440100207047704770477047704770473C
:1035E0007047704770477047704770477047704723
:1035F00070477047704708B5FFF7ECFFFFF7EBFF28
:10360000FFF7EAFFFFF7E9FFFFF7E8FFFFF7E7FF44
:10361000FFF7E6FFFFF7E5FFFFF7E4FFFFF7E3FF44
:10362000FFF7E2FFFFF7E1FFFFF7E0FFFFF7DFFF44
:10363000FFF770FFFFF7DDFFFFF7DAFFFFF7DAFFB5
:1036400008BD000008B5044B00221A7783F820203B
:10365000FFF7D1FF08BD00BF50010020034A137FD0
:1036600042F8230001331377704700BF5001002058
:1036700070B54378FF2B044604D02046BDE8704067
:10368000FEF730B9B0F8033003F47F43B3F5406F71
:10369000F3D1084E0025327FEBB29A42EDD956F8AD
:1036A00023302046984701350028F4D0023818BF4F
:1036B000012070BD500100202DE9F04FCBB09C4699
:1036C0009DF854619DF85C51ADF82B209DF8502178
:1036D0008DF828000AAC06F108034FF00009ADF898
:1036E00029108DF82E2056998DF82DC032460CA841
:1036F00004EB030B01938DF82F6005F109078DF89A
:103700000F9000F0A0FA019B5899E55437442A46DF
:103710000BF1010000F097FA04EB070ABDF86431E1
:10372000E353BDF86831AAF8023018224946093639
:1037300004A800F08AFA35440A4B04930DF10F08EF
:1037400001230435494604A8CDE907580694099396
:1037500000F04CFB4845ACBF9DF80F00FF204BB07C
:10376000BDE8F08F3F00830070B5C8B000258DF82C
:1037700020001822294602A88DF8075000F065FAAB
:103780000A4B02930DF10704012308AE294602A853
:10379000CDE905340496079300F028FBA842ACBF9E
:1037A0009DF80700FF2048B070BD00BF3F008500B6
:1037B00070B5C8B000268DF823309DF830318DF8F3
:1037C00024309DF834318DF825309DF838318DF84E
:1037D00026304F9B8DF820008DF821108DF8222087
:1037E000CDF8273018229DF840318DF82B30314626
:1037F00002A88DF8076000F028FA0B4B02930DF138
:1038000007050C23CDE9053508AC0123314602A894
:103810000494079300F0EAFAB042ACBF9DF80700A9
:10382000FF2048B070BD00BF3F0086002DE9F04189
:10383000C8B080460F4616460021072268461D463E
:1038400000F003FA1822002102A88DF820808DF8DC
:1038500021708DF8226000F0F8F9144B02930323D5
:10386000059308AC0723002102A80494CDF818D0D2
:10387000079300F0BBFA002816DB9DF8000080B922
:10388000009B9DF80420C3F30F232B809DF8033089
:1038900043EA02234E9A1380019B4F9AC3F30F23EE
:1038A000138048B0BDE8F081FF20FAE73F008A00AE
:1038B000F0B5C9B000268DF82000024604460DF18F
:1038C00021008DF8076000F0BEF91822314602A8E9
:1038D00000F0BBF90A4B02930DF10705012308AF75
:1038E0000134314602A8CDE905450497079300F05D
:1038F0007DFAB042ACBF9DF80700FF2049B0F0BD93
:103900003F008E0010B5002488B01822214602A87E
:103910008DF8074000F099F9084B02930DF1070369
:1039200006932146012302A8079300F05FFAA04204
:10393000ACBF9DF80700FF2008B010BD3F0001019B
:103940002DE9F04F0128C9B004468A4691461F462A
:103950003BD002280CBF4FF011084FF0010801AD19
:1039600003220021284608AE00F06FF9012C3470C4
:103970002ED0022C2ED1102406EB080B22465146E5
:103980000DF1210000F05FF906F8089018220021DF
:103990008BF8017002A800F058F9104B0293033421
:1039A0000323002102A8CDE905450496079300F002
:1039B0001DFA002810DB287820B92B68529AC3F32F
:1039C0000F23138049B0BDE8F08F4FF00308C6E71E
:1039D0000224D1E79720F5E7FF20F3E73F0002013B
:1039E0002DE9F0430129C9B006460C469146984698
:1039F00047D002290CBF1327032708AD032200215B
:103A000001A800F022F9012C2E80AC703BD0022CD2
:103A10003BD11024EE19224649460DF1230000F057
:103A200012F99DF8403125F80780B3709DF84431B4
:103A3000F3709DF8483133719DF84C3173719DF8E6
:103A40005031B3711822002102A800F0FEF80A34A8
:103A5000104B02930594032301AC002102A80495A6
:103A60000694079300F0C2F9002810DB9DF80400CB
:103A700020B9019B559AC3F30F23138049B0BDE8C9
:103A8000F0830527B9E70224C4E79720F6E7FF2073
:103A9000F4E700BF3F000401F0B5C9B00027ADF85E
:103AA0002000ADF822108DF824204E998DF8253095
:103AB0001A460DF126001C468DF8077000F0C3F879
:103AC0001822394602A800F0C0F80B4B02930DF102
:103AD0000706012308AD0634394602A8CDE905469C
:103AE0000495079300F082F9B842ACBF9DF8070037
:103AF000FF2049B0F0BD00BF3F000601F0B5C9B0DE
:103B000000279DF83851ADF82000ADF822108DF84F
:103B100024204F998DF825302A460DF127008DF885
:103B200026508DF8077000F08EF81822394602A84A
:103B300000F08BF80A4B02930DF10706012308AC45
:103B40000735394602A8CDE905560494079300F0DD
:103B50004DF9B842ACBF9DF80700FF2049B0F0BD59
:103B60003F002601F0B5C9B00C46002611468DF87D
:103B7000200022460DF122008DF821408DF80760CB
:103B800000F061F81822314602A800F05EF80B4BF5
:103B900002930DF10705012308AF0234314602A854
:103BA000CDE905450497079300F020F9B042ACBF7A
:103BB0009DF80700FF2049B0F0BD00BF3F000C009A
:103BC00070B5C8B000258DF820008DF8211018229E
:103BD000294602A88DF8075000F037F80A4B0293E7
:103BE0000DF107040223CDE9053408AE012329466F
:103BF00002A80496079300F0F9F8A842ACBF9DF81C
:103C00000700FF2048B070BD3F000F0010B5002432
:103C100088B01822214602A88DF8074000F015F858
:103C20004FF0031302930DF107030693214601237E
:103C300002A8079300F0DAF8A042ACBF9DF8070095
:103C4000FF2008B010BD00F035BF00F041BF1FB528
:103C5000002204466B4611464FF6524000F0C4F96C
:103C600014B19DF80F3023709DF80E0004B010BD04
:103C70001FB50B4680B10090042113B104310193AC
:103C8000C9B26B461A464FF6544000F0ADF99DF8A4
:103C90000E0005B05DF804FB0146EEE71FB50022FB
:103CA0006B4611464FF65A4000F09EF99DF80E0003
:103CB00005B05DF804FB1FB500F10C026B462E2128
:103CC0004FF6664000F090F99DF80E0005B05DF8E3
:103CD00004FB1FB500F10C026B460F214FF6684044
:103CE00000F082F99DF80E0005B05DF804FB1FB5E9
:103CF0006B468DF800001A4601214FF6694000F02E
:103D000073F99DF80E0005B05DF804FB1FB56B4616
:103D10008DF800001A4601214FF6734000F064F957
:103D20009DF80E0005B05DF804FB00007FB50F4D57
:103D30000F4B4A680F4EE8610C4628461A6000F0A7
:103D4000D3F80D48246800F039FB304640F8044BA6
:103D500000F034FB012333732B6823B1074A02942C
:103D600000926846984704B070BD00BF2C03002045
:103D7000280300207401002020030020B53E000825
:103D80001FB5174C201D00F01CFBB0B9237BA3B15D
:103D900001A9201D00F042FB124BDA690123BAB1E0
:103DA00001998DF80830039102A890479DF80830DA
:103DB00023737BB1019800F057FA0B4800F001FB28
:103DC00020B9237B13B10848FDF7B4FD04B010BD42
:103DD0002373EFE70199201D00F0FDFAEDE700BF26
:103DE000740100202C030020780100202DE9F74306
:103DF0002C4E336804460BB1002098476388228814
:103E00002948DFF8AC900068C3F3090343EA822332
:103E1000D4E902120C3020F8033C00F8012CD2B295
:103E20001FFA83F800F046FE204B00211B6908466C
:103E3000984748F2E800FDF784FD0027484600F067
:103E4000C0FA48B1002FF4D033680BB10120984775
:103E5000002003B0BDE8F08301A9484600F0DEFA77
:103E6000019D6B7A0F2B0BD1B5F80D30434502BF86
:103E70002369EA7A1A702B7B002BDFD00127DDE75C
:103E8000AB8943450CD1AA7A63692069033AD2B25F
:103E90009A42A8BF1A46626105F10E0100F00AFEBF
:103EA000EB7AE9E728030020740100202C030020AE
:103EB0002003002008B5437A0E3B012B014606D8AB
:103EC000074800F094FA0020FDF738FD08BD0548CA
:103ED00000F08DFABDE808400248FDF72BBD00BF99
:103EE0002003002078010020024B0360024B036195
:103EF000704700BFF14000083941000808B501468D
:103F0000034800F074FABDE808400148FCF793BC90
:103F100084010020034B01201872034B1B6803B17E
:103F200018477047840100204C0300207FB50F4DD7
:103F30000F4B4A68E8610C4628461A6000F090F87A
:103F400026680C4C2046E66000F038FAFFF7E2FFE6
:103F5000012323742B6833B1074A0192074A039661
:103F6000029201A8984704B070BD00BF5003002022
:103F70004C0300208401002055400008FD3E00084D
:103F80001FB5174C204600F01CFAB0B9237CA3B132
:103F900001A9204600F042FA124BDA690123BAB1B6
:103FA00001998DF80830039102A890479DF80830D8
:103FB00023747BB1019800F057F9094800F001FA29
:103FC00020B9237C13B10648FCF735FC04B010BDC2
:103FD0002374EFE70199204600F0FDF9EDE700BFFB
:103FE00084010020500300202DE9F3411D46164BAB
:103FF0001B680C46074611461BB1002001929847EA
:104000000199124EF06822464FF00008A0F809709E
:10401000C4720C3086F8088000F04CFD0C4B414611
:104020001B694046984748F2E800FCF70BFCF16832
:104030008A7805F10800033200F03CFD02B0BDE8CB
:10404000F041FFF767BF00BF4C0300208401002050
:104050005003002008B50020FCF7F1FB08BD00006C
:10406000024B0360024B0361704700BF8D410008A3
:10407000C941000837B5094C094D084800F0A1F9BD
:1040800008B103B030BD01A9204600F0C7F92B6983
:104090000199186900F0ABF9EFE700BF7803002041
:1040A00000000320FDF722BD0F4B104A03F1200151
:1040B0001360516003F13001916003F1400111621E
:1040C00003F14801516203F15001D16003F158013D
:1040D000116103F17401516103F17801843391613D
:1040E000D361FDF72BBD00BF340103200000032086
:1040F00038B50C4D0446284600F060F90A4BA2681A
:104100005B681A60E268DA60084AC3E90125FDF7D6
:1041100035FD074B22681A60064B62681A60002062
:1041200038BD00BFC401032000000320580A03204B
:10413000740300207003002008B5054B5A685B68C3
:10414000126801211172FDF721FD002008BD00BF9A
:104150000000032037B5084C084D074800F031F93E
:1041600008B103B030BD204601A900F057F92B6813
:1041700001989847F1E700BFC401032074030020B1
:10418000014B1B68184700BF7003002038B50A4D6B
:104190000446284600F012F9084BA268DB68C3E920
:1041A0000025FDF7FBFC064B22681A60054B626890
:1041B0001A60002038BD00BFCC010320000003209E
:1041C000800300208403002008B5054BDA68DB6813
:1041D000126810211172FDF7E9FC002008BD00BF34
:1041E00000000320034BDA68DA68034B10681B6891
:1041F000184700BF000003208003002037B5084C9B
:10420000084D074800F0DDF808B103B030BD204686
:1042100001A900F003F92B6801989847F1E700BF66
:10422000CC0103208403002038B50C4D04462846F9
:1042300000F0C4F80A4800F0C1F80A4BA2681B69F4
:104240009A60E268C3E9032522681A6062685A60CE
:1042500022695A6162699A6138BD00BFD4010320A6
:10426000780300200000032008B50146034800F051
:10427000BEF8BDE808400248FDF7D6BC7803002030
:104280007540000810B5054C204600F097F8044B27
:104290005B691C60BDE81040FDF7DCBCDC0103205D
:1042A000000003207047000013B5074C064800F0DB
:1042B00088F808B102B010BD204601A900F0AEF8A0
:1042C0000198FFF7EFFFF1E7DC01032013B5EFF3EF
:1042D000108472B60C480DF1060100F0C8F90A48C6
:1042E0000DF1060100F01FFA40B184F31088074A6F
:1042F000BDF80610FCF7C7F902B010BD044B01224F
:104300001A7084F31088F7E788030020CD42000874
:104310003800002007B5FCF7B3F9022300930549E4
:10432000054800234FF4805200F084F803B05DF894
:1043300004FB00BFA80300208803002070B51446CA
:10434000EFF31085431C1BD0013801281AD892B115
:1043500072B696B20D480123324600F07FF860B184
:104360000B4B1A784AB100221A7085F31088094A5B
:104370003146FCF788F9204670BD85F31088FAE7CE
:104380000024F8E74FF0FF34F5E700BF8803002072
:1043900038000020CD420008FFF7D0BF0346054A91
:1043A0000548C179994202D0904201D1002070475E
:1043B0000838F6E70070FF1FF873FF1F00604060C9
:1043C0007047EFF3108372B60268821A5042504170
:1043D00083F310887047EFF3108372B602680A60A7
:1043E000486001600A68516083F310887047EFF3FA
:1043F000108372B6086042684A6041604A68116082
:1044000083F310887047EFF3108272B64368016837
:10441000196001684B6082F31088704710B5EFF3A4
:10442000108472B603680B600068FFF7ECFF84F33A
:10443000108810BD10B59DF8084001600021C0E94A
:104440000311C0E9051142600381047714F00200F2
:1044500003D0581A18BF0120404210BD2DE9F04F7B
:1044600087B0068901910446D0E90401002E174661
:1044700003930CBF4FF0020A4FF0000A002931D01D
:10448000002E34D165682368421CAA4228BF521B03
:104490001E5C9B5C023606EB0326B6B2E368039A09
:1044A00083429CBF63681B1A07EB0A0094BF9B1BE7
:1044B000002342439A421CD3B3FBF0F500FB1533B3
:1044C000DBB29A4515D2207F10F0010F08BF002300
:1044D000800740F1CA801FFA8AF367B9002007B04D
:1044E000BDE8F08F002ED9D037460E46D6E73746C6
:1044F000D4E70023F1E70A44134462689342EDD8FD
:10450000C7F30723029307EB0A034FF000099BB29E
:10451000C846CB460593039B206962689B4508D13A
:1045200082442368924528BFAAEB020A03EB0A00E3
:10453000D5E730449042238928BF801A20618BB987
:104540002268029917546268431C9A4298BF9B1ACA
:104550002268D154581C6368834298BFC01A6369AB
:104560000233636163681B1A9F423D4628BF1D46A4
:104570009F4203D9AF42237F26D91BBB23680199F1
:104580002A461844494400F095FA6369059E2B4475
:10459000A84663617D1B00206DB123680493019BD5
:1045A00008EB09011944049B2A46184400F082FADA
:1045B00063692B446361A3690133A3610BF1010BB0
:1045C000B944A8E7002DF6D0DA0721D5238943B9ED
:1045D00023680344FF2203F8022C2368184400F8E0
:1045E000012C636922892B446361002A38D1236836
:1045F00002991F70236859706369023363613D46F5
:10460000904602200AEB05060023B6B22361C3E7F9
:104610009B07F7D52389002B7FF460AF23680199AE
:1046200003442A0A03F8025C23680344494403F85C
:10463000012C23682A46184400F03CFAA2696369F9
:1046400001322B44A261226863617B1B13702268D4
:10465000190A517062690232A84662611D46D0E7AC
:104660004FF000083D464046CCE79BB235E7F0B539
:104670000689D0F814E0002E0CBF4FF0020C4FF06A
:10468000000CBEF1000F4BD00568C2684468002ED4
:1046900042D1571CA74228BF3F1BAB5CEF5D03EB29
:1046A00007239BB2077F07F00307012F1BD14FF6AB
:1046B000FF77BB4200D136B10769974213D296B15A
:1046C000A71AB7420FD27244121B00234261C36083
:1046D00026BB012C94BFC4F1010201222B78AA5CF5
:1046E00003EB02239BB2C2686244A2422CBF161B9A
:1046F0001646354446699C44A6EB0C06466126B135
:104700001A44A24228BF121BC2608269013A826128
:1047100001B10B802846F0BD3346C3E73346E2E7DC
:1047200073467546F4E7B0F808C04369BCF1000F62
:10473000F0B50CBF02260026002B3AD0D0E9004588
:10474000C768BCF1000F27D17A1CAA4228BF521BB0
:10475000E35DA25C03EB02239BB2027F02F0030243
:10476000012A11D14FF6FF7E734502D1BCF1000F33
:1047700014D00269BA4207D2BCF1000F04D0EA1B80
:1047800062453CBF63460027F019A84228BF401B82
:10479000204401B10B80F0BD6346DEE7012D98BFD8
:1047A000C5F101022378A25C03EB02239BB2002730
:1047B000EAE71846EDE70000024A00231360024AC8
:1047C00013607047AC130020A813002010B5EFF35E
:1047D000108472B641B1012903D1064A1368184307
:1047E000106084F3108810BD024A136823EA0000A9
:1047F000F6E700BFA813002010B5EFF3108472B6DF
:10480000064A136803431360054A52F831301843CF
:1048100042F8310084F3108810BD00BF4C14002012
:104820003C140020EFF3108172B6044A136823EAA7
:104830000000106081F31088704700BF4000002026
:10484000EFF3108172B6034A13681843106081F3C6
:104850001088704740000020EFF3108172B6034AC1
:1048600013681843106081F310887047B413002058
:1048700070477047030C1B04C3B90004102310F0E9
:104880007F4F02BF08330002DBB210F0704F08BF49
:104890000001074A4FEA107008BF0433105C08BFDC
:1048A000DBB2C3F11F03181AC0B270470023E6E75A
:1048B000405F00082DE9F84F404D414ED5F800808B
:1048C000DFF80CB1DFF80CA1DFF80C91D6F800E0AE
:1048D0003C4FDBF800103C4C08EA00002860DAF896
:1048E0000000D9F800302A6802EA000C1CEA0E0F1A
:1048F00044D00B4042D121680A40024201D1A36852
:10490000012354F83320D90004EBC3030CEA02025C
:104910005868104208BF4FF0FF30214408BF58606C
:1049200048681040FFF7A6FF4B683860012202FA82
:1049300000F023EA00004860EFF3108172B63B6894
:1049400002FA03F3326822EA03023260A26822EA22
:104950000302A260226822EA0303236081F3108825
:104960001A4A3B6852F823309847D6F800E0DBF843
:104970000010DAF80000D9F80030B4E74FF0FF3348
:104980003B60FFF775FFEFF3108472B63368DBF816
:104990000020DAF800100B4029680B4205D1D9F845
:1049A0000030134201D1FBF741FF84F31088FFF779
:1049B00060FFC5F80080BDE8F88F00BF3C00002014
:1049C0004C140020B01300203C140020BC13002025
:1049D000B413002040000020B81300202DE9F04758
:1049E000DFF85890134ED9F80080134FD6F800A086
:1049F0003060B8F1FF3F18BF0125044614BF05FA27
:104A000008F500253B6823420ED0C9F80080EFF37B
:104A1000108372B6386820EA0400386083F3108887
:104A2000C6F800A0BDE8F08721462846FBF7FFFE48
:104A3000E8E700BFB8130020B4130020B013002033
:104A400010B51146EFF3108472B6FFF713FF034B56
:104A500043F8201084F3108810BD00BFBC13002061
:104A6000014B1868704700BF4400002070B50D4D21
:104A70000D4C641BA4100026A64209D10B4D0C4C12
:104A800001F032F8641BA4100026A64205D170BDC7
:104A900055F8043B98470136EEE755F8043B984734
:104AA0000136F2E7F05F0008F05F0008F05F0008F1
:104AB000F45F00080A44914200F1FF3300D17047CF
:104AC00010B511F8014B03F8014F9142F9D110BD17
:104AD00002440346934200D1704703F8011BF9E7F3
:104AE0000FB40A4B13B51C6824B1A36913B920464F
:104AF00000F05EFA05AB049AA1680193204600F02D
:104B000067FC02B0BDE8104004B0704744000020CC
:104B100070B50E46054618B183690BB900F048FA26
:104B2000AB69AC6813B9284600F042FA2C4B9C42A2
:104B300020D16C68636EDB0705D4A389980502D485
:104B4000A06D00F0D3FAA38919071DD52369DBB145
:104B5000013EA36816F8011F013BA36039BB002B7F
:104B600038DA22460A21284600F048F8013011D0F0
:104B70000A2511E01B4B9C4201D1AC68DAE71A4BC5
:104B80009C4208BFEC68D5E72146284600F088F82B
:104B90000028DDD04FF0FF35636EDA0705D4A38916
:104BA0009B0502D4A06D00F0A2FA284670BD002B30
:104BB00004DAA2699A4206DC0A2904D023685A1C46
:104BC00022601970C5E72246284600F017F8013028
:104BD000BFD1DFE723680A255A1C22601D70DBE77E
:104BE000745F0008945F0008545F0008024B0146A0
:104BF0001868FFF78DBF00BF44000020F8B50E46CF
:104C00001446054618B183690BB900F0D1F9214B60
:104C10009C422BD16C68A369A360A3891A072FD586
:104C200023696BB323692068C01A6369F6B28342B3
:104C3000374604DC2146284600F026F930BBA3683D
:104C4000013BA36023685A1C22601E706369013017
:104C5000834204D0A389DB0706D50A2E04D121465E
:104C6000284600F011F988B93846F8BD0A4B9C4235
:104C700001D1AC68CFE7094B9C4208BFEC68CAE79A
:104C80002146284600F00CF80028CBD04FF0FF3723
:104C9000EAE700BF745F0008945F0008545F0008F3
:104CA000324B70B51D6806460C4625B1AB6913B989
:104CB000284600F07DF92E4B9C420FD16C68A389E9
:104CC000B4F90C2019072CD4DD0611D40923336064
:104CD00042F04003A3814FF0FF303EE0254B9C4261
:104CE00001D1AC68EBE7244B9C4208BFEC68E6E7D7
:104CF000580712D5616B41B104F14403994202D0C7
:104D0000304600F05BFA00236363A38923F0240399
:104D1000A3810023636023692360A38943F0080310
:104D2000A38123694BB9A38903F42073B3F5007FF2
:104D300003D02146304600F001FAA089B4F90C20D6
:104D400010F001030AD00023A36063695B42A361F2
:104D5000236943B910F08000BAD170BD810758BFF4
:104D60006369A360F4E70020F7E700BF4400002078
:104D7000745F0008945F0008545F00088A892DE979
:104D8000F041054610070C4658D44B68002B05DC53
:104D90000B6C002B02DC0020BDE8F081E66A002EDF
:104DA000F9D0002312F480522F682B6032D0606D4E
:104DB000A3895A0705D56368C01A636B0BB1236CCE
:104DC000C01A00230246E66A216A2846B047431CFF
:104DD000A38906D129681D292CD82A4ACA40D6079A
:104DE00028D500226260D9042269226004D5421CC1
:104DF00001D12B6803B96065616B2F600029CAD0AF
:104E000004F14403994202D0284600F0D7F900206B
:104E10006063C1E7216A01232846B047411CC7D11E
:104E20002B68002BC4D01D2B01D0162B01D12F6075
:104E3000B1E7A38943F04003A381ADE70F69002FD9
:104E4000A9D093070E6808BF4B690F6018BF0023F5
:104E5000A6EB07088B60B8F1000F9CDD216AA66AFB
:104E600043463A462846B047002806DCA38943F06B
:104E70004003A3814FF0FF308EE70744A8EB000802
:104E8000E9E700BF0100402038B50B6905460C4634
:104E900013B90025284638BD18B183690BB900F055
:104EA00087F8144B9C421BD16C68B4F90C30002B72
:104EB000EFD0626ED00704D4990502D4A06D00F043
:104EC00015F928462146FFF759FF636EDA070546B4
:104ED000E0D4A3899B05DDD4A06D00F008F9D9E7E3
:104EE000054B9C4201D1AC68DFE7044B9C4208BFF4
:104EF000EC68DAE7745F0008945F0008545F00080C
:104F0000002310B50446C0E90033C0E904338360D0
:104F100081814366C2818361194608225C30FFF7B4
:104F2000D7FD054B6362054BA362054BE362054B5E
:104F30002462236310BD00BF795900089B59000803
:104F4000D3590008F7590008014900F0AFB800BF75
:104F5000894E000870B568224D1E55430E4605F176
:104F6000740100F097F9044640B10021C0E9001631
:104F70000C30A06005F16802FFF7AAFD204670BD65
:104F8000014800F0B3B800BF51140020014800F000
:104F9000AEB800BF51140020014800F0A7B800BF10
:104FA00052140020014800F0A2B800BF52140020A3
:104FB00010B50446FFF7F0FFA3691BB1BDE8104030
:104FC000FFF7F0BFC4E912332365134B134A1B6884
:104FD000A262A34204BF0123A361204600F020F88F
:104FE0006060204600F01CF8A060204600F018F831
:104FF0000022E06004216068FFF782FFA0680122C0
:105000000921FFF77DFFE06802221221FFF778FFF8
:105010000123A361D2E700BF505F0008494F000899
:10502000F8B50746FFF7ACFF1E4B1E68B36913B90E
:105030003046FFF7BDFF4836D6E90134013B03D5C2
:1050400033680BB33668F7E7B4F90C50D5B9164B93
:10505000E36004F15800656600F047F8FFF796FF3B
:10506000C4E90155C4E904552560A5610822294613
:1050700004F15C00FFF72CFDC4E90D55C4E912559D
:105080002046F8BD6834D9E704213846FFF762FFAF
:10509000044630600028D5D1FFF778FF0C233B6031
:1050A000EEE700BF505F00080100FFFF2DE9F84365
:1050B0000646884600F148040027D4E90195B9F175
:1050C000010905D52468002CF7D13846BDE8F883DE
:1050D000AB89012B07D9B5F90E30013303D029462E
:1050E0003046C04707436835E9E770477047704767
:1050F00070B50E46B1F90E10002996B014461D4643
:1051000008DAB6F90C3000222A601A0610D44FF4DF
:1051100080630EE06A4600F095FC0028F1DB019AFE
:1051200002F47042A2F500535A425A412A60EEE757
:1051300040230020236016B070BD00008B8973B53A
:105140009D0706460C4607D504F1470323602361FB
:105150000123636102B070BD01AB6A46FFF7C8FF6F
:1051600000990546304600F095F848B9B4F90C307E
:105170009A05EFD423F0030343F00203A381E3E78E
:105180000D4BB362A389206043F08003A381009B91
:105190006361019B20615BB1B4F90E10304600F0F1
:1051A00063FC28B1A38923F0030343F00103A38127
:1051B000A0890543A581CDE7494F000837B50029EF
:1051C00044D051F8043C0190002BA1F10404B8BF75
:1051D000E41800F06BFC1E4A0198136833B9636051
:1051E000146003B0BDE8304000F066BCA34208D9AB
:1051F000256861198B4201BF19685B6849192160F4
:10520000EDE71A465B680BB1A342FAD9116855184D
:10521000A5420BD1246821445418A3421160E0D167
:105220001C685B68536021441160DAE702D90C23E3
:105230000360D6E7256861198B4204BF19685B6873
:10524000636004BF491921605460CAE703B030BDF0
:105250005414002070B50E4E0C463168054611B945
:1052600000F07AFB30602146284600F075FB431CB5
:105270000AD0C41C24F00304A04207D0211A2846F7
:1052800000F06AFB013001D14FF0FF34204670BDC1
:10529000581400202DE9F041CD1C25F003050835F8
:1052A0000C2D38BF0C25002D074601DBA94205D97E
:1052B0000C233B6000263046BDE8F0812E4E00F006
:1052C000F5FB33681C4634BB29463846FFF7C2FF5E
:1052D000431C04464DD134682646002E40D1236835
:1052E0003146384604EB030800F036FB80453AD1DE
:1052F000216803356D1A25F0030508350C2D38BFDC
:105300000C2529463846FFF7A5FF01302BD023682E
:105310002B4423600EE02268521B1ED40B2A16D9A0
:105320006119A342256018BF5960636808BF3160E6
:1053300062514B60384604F10B0600F0BDFB26F0CD
:105340000706231DF21AB6D09B1BA350B3E7626871
:10535000A3420CBF32605A60ECE723466468B2E7B0
:1053600034467668B9E70C233B60384600F0A4FB6E
:10537000A1E72560DEE700BF541400209368013BDD
:10538000002B10B4936008DA9469A34201DB0A2968
:1053900003D15DF8044BFFF731BC1368581C106053
:1053A000197008465DF8044B7047F8B506460F467D
:1053B0001446D518AC4201D1002007E014F8011BB7
:1053C0003A463046FFF7DAFF431CF3D1F8BD000040
:1053D0002DE9F04F0D469DB014469846064618B18B
:1053E00083690BB9FFF7E4FD894B9D421BD17568BA
:1053F0006B6ED90705D4AB899A0502D4A86DFFF767
:1054000075FEAB891B0701D52B69EBB929463046E0
:10541000FFF746FCC0B16B6EDC070ED54FF0FF30D6
:105420001DB0BDE8F08F7B4B9D4201D1B568DFE731
:10543000794B9D4208BFF568DAE7AB899805EDD452
:10544000A86DFFF754FEE9E70023099320238DF8A8
:105450002930CDF80C803023DFF8C0818DF82A3058
:105460004FF0010923469A4613F8012B0AB1252A69
:10547000F9D1BAEB040B0BD05B46224629463046E5
:10548000FFF793FF013000F0AA80099A5A4409926D
:105490009AF80030002B00F0A28000234FF0FF327A
:1054A000CDE905230AF1010A049307938DF85330DF
:1054B0001A935446052214F8011B5848FAF760FE67
:1054C000049AD8B9D10644BF20238DF8533013076E
:1054D00044BF2B238DF853309AF800302A2B15D077
:1054E000079A544600204FF00A0C214611F8013B60
:1054F000303B092B4ED9B0B1079214E0A0EB080362
:1055000009FA03F313430493A246D2E7039B191D40
:105510001B680391002BBBBF5B4242F00202079362
:105520000793B8BF049223782E2B0CD163782A2BD3
:1055300035D1039B1A1D1B680392002BB8BF4FF097
:10554000FF3302340593DFF8E4A0217803225046AC
:10555000FAF716FE40B14023A0EB0A0003FA00F070
:10556000049B03430134049314F8011B2C488DF869
:1055700028100622FAF704FE00283FD0294B1BBB57
:10558000039B073323F0070308330393099B3B4432
:10559000099367E70CFB02320C460120A5E70023C4
:1055A0000134059319464FF00A0C204610F8012BE0
:1055B000303A092A03D9002BC5D00591C3E70CFB6B
:1055C000012104460123F0E703AB00932A46164B62
:1055D00004A93046AFF300800746781CD6D16B6E25
:1055E000D90705D4AB899A0502D4A86DFFF77FFDD2
:1055F000AB895B063FF512AF099811E703AB009347
:105600002A46094B04A9304600F080F8E4E700BFC1
:10561000745F0008945F0008545F0008B45F0008DE
:10562000BE5F000800000000AB530008BA5F00082E
:105630002DE9F047164699468A680B69DDF8208007
:105640009342B8BF1346336091F8432007460C4697
:105650000AB1013333602368990642BF33680233CD
:105660003360256815F0060506D104F1190AE368D0
:1056700032689B1AAB4226DC94F84320131E226842
:1056800018BF012392062BD404F143024946384641
:10569000C04701301ED02368E568326803F0060376
:1056A000042B08BFAD1AA36822690CBF25EAE57573
:1056B00000259342C4BF9B1AED1800261A34B54248
:1056C0001AD1002008E00123524649463846C04717
:1056D000013003D14FF0FF30BDE8F0870135C6E758
:1056E000E1185A1C302081F84300224494F84510F8
:1056F00082F843100233C7E7012322464946384661
:10570000C0470130E6D00136D9E700002DE9FF4758
:105710000F7E0C9D782F914680460C469A4601F1EB
:10572000430207D8622F0AD8002F00F0D880582FE4
:1057300000F0A38004F1420584F842703AE0A7F13A
:105740006303152BF6D801A151F823F0A5570008E3
:10575000B957000835570008355700083557000875
:1057600035570008B9570008355700083557000865
:105770003557000835570008C5580008E957000894
:10578000A75800083557000835570008E7580008A3
:1057900035570008E9570008355700083557000805
:1057A000AF5800082B681A1D1B682A6004F14205D7
:1057B00084F842300123A3E020682968060601F13D
:1057C00004030AD50E682B60002E03DA2D237642DF
:1057D00084F843305E480A2319E00E682B6010F00D
:1057E000400F18BF36B2EFE72B682068191D2960FB
:1057F000010601D51E6802E04606FBD51E88544806
:105800006F2F0CBF08230A23002184F8431065681A
:10581000A560002DA2BF216821F0040121600EB90E
:10582000002D4DD01546B6FBF3F103FB1167C75DA4
:1058300005F8017D3746BB420E46F4D9082B0BD143
:105840002368DE0708D5236961689942DEBF3023EB
:1058500005F8013C05F1FF35521B2261CDF800A08F
:105860004B4603AA21464046FFF7E2FE01304CD1E9
:105870004FF0FF3004B0BDE8F087354881F845703F
:105880002968236851F8046B29601D0614D5DF07C9
:1058900044BF43F0200323601EB9236823F0200394
:1058A00023601023B0E7236843F0200323607823AC
:1058B000284884F84530E3E7590648BFB6B2E6E722
:1058C0001546BBE72B6826686169181D28603506F8
:1058D0001B6801D5196002E07006FBD51980002312
:1058E00023611546BAE72B681A1D2A601D68626895
:1058F00000212846FAF744FC08B1401B6060636849
:105900002361002384F84330A8E723692A464946E7
:105910004046D0470130ABD023689B0713D4E068E2
:10592000039B9842B8BF1846A4E701233246494674
:105930004046D04701309BD00135E36803995B1A9C
:10594000AB42F2DCEBE7002504F11906F5E700BFF6
:10595000C55F0008D65F000838B5064D0023044631
:1059600008462B60FBF700FE431C02D12B6803B1F5
:10597000236038BD5C14002010B50C46B1F90E1040
:1059800000F0A0F80028ABBF636DA3891B1823F4B7
:105990008053ACBF6365A38110BD2DE9F0411F4664
:1059A0008B89DB0505460C46164605D5B1F90E1068
:1059B0000223002200F068F8A389B4F90E1023F442
:1059C0008053A38132463B462846BDE8F04100F0B3
:1059D00017B810B50C46B1F90E1000F055F8431C7D
:1059E000A38915BF606523F4805343F48053A381DA
:1059F00018BFA38110BDB1F90E1000F013B800005C
:105A000038B5074D04460846114600222A601A465A
:105A1000FEF7C2FC431C02D12B6803B1236038BDE2
:105A20005C14002038B5064D0023044608462B6060
:105A3000FBF78EFD431C02D12B6803B1236038BDF8
:105A40005C14002038B5074D002304460846114673
:105A50002B60FBF780FD431C02D12B6803B1236050
:105A600038BD00BF5C14002038B5064D0023044645
:105A700008462B60FBF774FD431C02D12B6803B171
:105A8000236038BD5C14002038B5074D0446084635
:105A9000114600222A601A46FBF764FD431C02D11E
:105AA0002B6803B1236038BD5C1400200148FFF768
:105AB0001DBB00BF501400200148FFF718BB00BFFA
:105AC0005014002038B5074D044608461146002200
:105AD0002A601A46FBF72EFD431C02D12B6803B146
