:020000040800F2
:1070000000000320458002084974020853740208F6
:10701000597402085F7402086574020800000000D9
:10702000000000000000000000000000A1F30108C3
:107030006B74020800000000F1F50108E1B20108DC
:1070400099800208998002089980020879740208E0
:1070500099800208998002088574020893740208D6
:10706000A1740208AF740208BD740208CD7402084E
:10707000E1740208F5740208097502089980020893
:107080009980020899800208998002089980020874
:107090009980020899800208998002081D750208EB
:1070A00099800208998002083175020899800208C7
:1070B0009980020899800208998002089980020844
:1070C0009980020899800208998002089980020834
:1070D0004D750208617502089980020899800208BE
:1070E0007575020899800208998002089980020843
:1070F00085750208917502089D750208A975020838
:1071000099800208998002089980020899800208F3
:1071100099800208998002089980020899800208E3
:1071200099800208998002089980020899800208D3
:0C713000998002089980020899800208EA
:0471400078FF0208CA
:1071500010B5054C237833B9044B13B10448AFF391
:1071600000800123237010BDC8050020000000002E
:10717000ECAE020808B5034B1BB103490348AFF35B
:10718000008008BD00000000CC050020ECAE020825
:10719000034613F8012B002AFBD1181A0138704757
:1071A00001F0FF01102A2BDB10F0070F08D010F8B8
:1071B000013B013A8B422DD010F0070F42B3F6D1BC
:1071C000F0B441EA012141EA014122F007047FF0D5
:1071D00000070023F0E80256083C85EA010586EA2C
:1071E000010685FA47F5A3FA87F586FA47F6A5FA68
:1071F00087F68EB9EED1F0BC01F0FF0102F0070274
:1072000032B110F8013B013A83EA010313B1F8D11E
:107210000020704701387047002D06BF35460338FF
:10722000073815F0010F07D1013015F4807F02BF38
:10723000013015F4C03F0130F0BC0138704700BF89
:1072400081F0004102E000BF83F0004330B54FEA17
:1072500041044FEA430594EA050F08BF90EA020F84
:107260001FBF54EA000C55EA020C7FEA645C7FEA17
:10727000655C00F0E2804FEA5454D4EB5555B8BF3A
:107280006D420CDD2C4480EA020281EA030382EAAB
:10729000000083EA010180EA020281EA0303362D3D
:1072A00088BF30BD11F0004F4FEA01314FF4801C10
:1072B0004CEA113102D0404261EB410113F0004F22
:1072C0004FEA03334CEA133302D0524263EB4303D9
:1072D00094EA050F00F0A780A4F10104D5F1200E77
:1072E0000DDB02FA0EFC22FA05F2801841F10001D2
:1072F00003FA0EF2801843FA05F359410EE0A5F1A6
:1073000020050EF1200E012A03FA0EFC28BF4CF0D6
:10731000020C43FA05F3C01851EBE37101F000458C
:1073200007D54FF0000EDCF1000C7EEB00006EEB99
:107330000101B1F5801F1BD3B1F5001F0CD3490823
:107340005FEA30004FEA3C0C04F101044FEA44527A
:1073500012F5800F80F09A80BCF1004F08BF5FEA01
:10736000500C50F1000041EB045141EA050130BDE1
:107370005FEA4C0C404141EB0101013C28BFB1F5F3
:10738000801FE9D291F0000F04BF01460020B1FA3E
:1073900081F308BF2033A3F10B03B3F120020CDA11
:1073A0000C3208DD02F1140CC2F10C0201FA0CF0EF
:1073B00021FA02F10CE002F11402D8BFC2F1200C54
:1073C00001FA02F120FA0CFCDCBF41EA0C0190400A
:1073D000E41AA2BF01EB0451294330BD6FEA040453
:1073E0001F3C1CDA0C340EDC04F11404C4F120023E
:1073F00020FA04F001FA02F340EA030021FA04F350
:1074000045EA030130BDC4F10C04C4F1200220FAA6
:1074100002F001FA04F340EA0300294630BD21FAE4
:1074200004F0294630BD94F0000F83F4801306BFAA
:1074300081F480110134013D4EE77FEA645C18BF9E
:107440007FEA655C29D094EA050F08BF90EA020F35
:1074500005D054EA000C04BF1946104630BD91EA2D
:10746000030F1EBF0021002030BD5FEA545C05D130
:107470004000494128BF41F0004130BD14F580046F
:107480003CBF01F5801130BD01F0004545F0FE41E3
:1074900041F470014FF0000030BD7FEA645C1ABF18
:1074A000194610467FEA655C1CBF0B46024650EA4F
:1074B000013406BF52EA033591EA030F41F400217B
:1074C00030BD00BF90F0000F04BF0021704730B501
:1074D0004FF4806404F132044FF000054FF00001D6
:1074E00050E700BF90F0000F04BF0021704730B597
:1074F0004FF4806404F1320410F0004548BF40426C
:107500004FF000013EE700BF42004FEAE2014FEAC0
:1075100031014FEA02701FBF12F07F4393F07F4F9B
:1075200081F06051704732F07F4208BF704793F09E
:107530007F4F04BF41F40021704730B54FF46074B1
:1075400001F0004521F000411CE700BF50EA0102B4
:1075500008BF704730B54FF000050AE050EA01025D
:1075600008BF704730B511F0004502D5404261EBCD
:1075700041014FF4806404F132045FEA915C3FF40E
:10758000D8AE4FF003025FEADC0C18BF03325FEAAB
:10759000DC0C18BF033202EBDC02C2F1200300FA5C
:1075A00003FC20FA02F001FA03FE40EA0E0021FA81
:1075B00002F11444BDE600BF70B54FF0FF0C4CF46F
:1075C000E06C1CEA11541DBF1CEA135594EA0C0F21
:1075D00095EA0C0F00F0DEF82C4481EA030621EA5C
:1075E0004C5123EA4C5350EA013518BF52EA033597
:1075F00041F4801143F4801338D0A0FB02CE4FF049
:107600000005E1FB02E506F00042E0FB03E54FF078
:107610000006E1FB03569CF0000F18BF4EF0010E70
:10762000A4F1FF04B6F5007F64F5407404D25FEA6C
:107630004E0E6D4146EB060642EAC62141EA55511F
:107640004FEAC52040EA5E504FEACE2EB4F1FD0C61
:1076500088BFBCF5E06F1ED8BEF1004F08BF5FEADF
:10766000500E50F1000041EB045170BD06F0004691
:1076700046EA010140EA020081EA0301B4EB5C043E
:10768000C2BFD4EB0C0541EA045170BD41F4801136
:107690004FF0000E013C00F3AB8014F1360FDEBF5B
:1076A000002001F0004170BDC4F10004203C35DA37
:1076B0000C341BDC04F11404C4F1200500FA05F3BA
:1076C00020FA04F001FA05F240EA020001F000425B
:1076D00021F0004110EBD37021FA04F642EB0601D1
:1076E0005EEA430E08BF20EAD37070BDC4F10C04FB
:1076F000C4F1200500FA04F320FA05F001FA04F2BF
:1077000040EA020001F0004110EBD37041F10001AA
:107710005EEA430E08BF20EAD37070BDC4F12005B5
:1077200000FA05F24EEA020E20FA04F301FA05F21D
:1077300043EA020321FA04F001F0004121FA04F2C5
:1077400020EA020000EBD3705EEA430E08BF20EA95
:10775000D37070BD94F0000F0FD101F000464000CF
:1077600041EB010111F4801F08BF013CF7D041EA51
:10777000060195F0000F18BF704703F00046520055
:1077800043EB030313F4801F08BF013DF7D043EA26
:107790000603704794EA0C0F0CEA135518BF95EADC
:1077A0000C0F0CD050EA410618BF52EA4306D1D163
:1077B00081EA030101F000414FF0000070BD50EA82
:1077C000410606BF1046194652EA430619D094EA0C
:1077D0000C0F02D150EA013613D195EA0C0F05D1F6
:1077E00052EA03361CBF104619460AD181EA03014A
:1077F00001F0004141F0FE4141F470014FF0000002
:1078000070BD41F0FE4141F4780170BD70B54FF09C
:10781000FF0C4CF4E06C1CEA11541DBF1CEA13551C
:1078200094EA0C0F95EA0C0F00F0A7F8A4EB0504FE
:1078300081EA030E52EA03354FEA013100F08880F5
:107840004FEA03334FF0805545EA131343EA1263BE
:107850004FEA022245EA111545EA10654FEA002673
:107860000EF000419D4208BF964244F1FD0404F52C
:10787000407402D25B084FEA3202B61A65EB030588
:107880005B084FEA32024FF480104FF4002CB6EB45
:10789000020E75EB030E22BFB61A754640EA0C00C5
:1078A0005B084FEA3202B6EB020E75EB030E22BF05
:1078B000B61A754640EA5C005B084FEA3202B6EB46
:1078C000020E75EB030E22BFB61A754640EA9C0005
:1078D0005B084FEA3202B6EB020E75EB030E22BFD5
:1078E000B61A754640EADC0055EA060E18D04FEA93
:1078F000051545EA16754FEA06164FEAC30343EA33
:1079000052734FEAC2025FEA1C1CC0D111F4801FFF
:107910000BD141EA00014FF000004FF0004CB6E7F8
:1079200011F4801F04BF01430020B4F1FD0C88BF97
:10793000BCF5E06F3FF6AFAEB5EB030C04BFB6EBA2
:10794000020C5FEA500C50F1000041EB045170BD95
:107950000EF0004E4EEA113114EB5C04C2BFD4EBC2
:107960000C0541EA045170BD41F480114FF0000E46
:10797000013C90E645EA060E8DE60CEA135594EAC2
:107980000C0F08BF95EA0C0F3FF43BAF94EA0C0FC5
:107990000AD150EA01347FF434AF95EA0C0F7FF43A
:1079A00025AF104619462CE795EA0C0F06D152EA8E
:1079B00003353FF4FDAE1046194622E750EA410672
:1079C00018BF52EA43067FF4C5AE50EA41047FF483
:1079D0000DAF52EA43057FF4EBAE12E74FF0FF3CE8
:1079E00006E000BF4FF0010C02E000BF4FF0010CB9
:1079F0004DF804CD4FEA410C7FEA6C5C4FEA430C32
:107A000018BF7FEA6C5C1BD001B050EA410C0CBF80
:107A100052EA430C91EA030F02BF90EA020F0020E2
:107A2000704710F1000F91EA030F58BF994208BF49
:107A300090422CBFD8176FEAE37040F00100704706
:107A40004FEA410C7FEA6C5C02D150EA013C07D15D
:107A50004FEA430C7FEA6C5CD6D152EA033CD3D0A8
:107A60005DF8040B704700BF8446104662468C46A2
:107A70001946634600E000BF01B5FFF7B7FF0028D5
:107A800048BF10F1000F01BD4DF808EDFFF7F4FFFE
:107A90000CBF012000205DF808FB00BF4DF808ED89
:107AA000FFF7EAFF34BF012000205DF808FB00BFAC
:107AB0004DF808EDFFF7E0FF94BF012000205DF8CE
:107AC00008FB00BF4DF808EDFFF7CEFF94BF012083
:107AD00000205DF808FB00BF4DF808EDFFF7C4FF7C
:107AE00034BF012000205DF808FB00BF4FEA410CC5
:107AF0007FEA6C5C02D150EA013C0AD14FEA430CA8
:107B00007FEA6C5C02D152EA033C02D14FF00000E4
:107B100070474FF0010070474FEA410212F5001222
:107B200015D211D56FF47873B3EB625212D94FEAC4
:107B3000C12343F0004343EA505311F0004F23FAAE
:107B400002F018BF404270474FF00000704750EA03
:107B5000013005D111F0004008BF6FF000407047C0
:107B60004FF00000704700BF80F0004002E000BF0F
:107B700081F0004142001FBF5FEA410392EA030F18
:107B80007FEA226C7FEA236C6AD04FEA1262D2EB62
:107B90001363C1BFD218414048404140B8BF5B4267
:107BA000192B88BF704710F0004F40F4000020F000
:107BB0007F4018BF404211F0004F41F4000121F016
:107BC0007F4118BF494292EA030F3FD0A2F1010260
:107BD00041FA03FC10EB0C00C3F1200301FA03F19E
:107BE00000F0004302D5494260EB4000B0F5000FC1
:107BF00013D3B0F1807F06D340084FEA310102F180
:107C00000102FE2A51D2B1F1004F40EBC25008BF31
:107C100020F0010040EA03007047490040EB0000FB
:107C2000013A28BFB0F5000FEDD2B0FA80FCACF1FC
:107C3000080CB2EB0C0200FA0CF0AABF00EBC25029
:107C400052421843BCBFD0401843704792F0000F17
:107C500081F4000106BF80F400000132013BB5E76A
:107C60004FEA41037FEA226C18BF7FEA236C21D0E0
:107C700092EA030F04D092F0000F08BF0846704745
:107C800090EA010F1CBF0020704712F07F4F04D113
:107C9000400028BF40F00040704712F100723CBF26
:107CA00000F50000704700F0004343F0FE4040F450
:107CB000000070477FEA226216BF08467FEA23630E
:107CC0000146420206BF5FEA412390EA010F40F4F9
:107CD000800070474FF0000304E000BF10F0004345
:107CE00048BF40425FEA000C08BF704743F096432C
:107CF00001464FF000001CE050EA010208BF704747
:107D00004FF000030AE000BF50EA010208BF7047CD
:107D100011F0004302D5404261EB41015FEA010CE2
:107D200002BF84460146002043F0B64308BFA3F1DA
:107D30008053A3F50003BCFA8CF2083AA3EBC253BC
:107D400010DB01FA02FC634400FA02FCC2F12002DB
:107D5000BCF1004F20FA02F243EB020008BF20F012
:107D60000100704702F1200201FA02FCC2F1200278
:107D700050EA4C0021FA02F243EB020008BF20EA6D
:107D8000DC7070477BB972B90029BEBF00204FF08C
:107D9000004106E008BF00281CBF6FF000414FF013
:107DA000FF3000F0DDB9ADF1080C6DE904CE00291B
:107DB00009DB002B1ADB00F06BF8DDF804E0DDE9ED
:107DC000022304B07047404261EB4101002B1BDBF2
:107DD00000F05EF8DDF804E0DDE9022304B0404283
:107DE00061EB4101524263EB43037047524263EB44
:107DF000430300F04DF8DDF804E0DDE9022304B0B0
:107E0000404261EB41017047524263EB430300F093
:107E10003FF8DDF804E0DDE9022304B0524263EBF1
:107E20004303704753B94AB9002908BF00281CBF53
:107E30004FF0FF314FF0FF3000F092B9ADF1080C78
:107E40006DE904CE00F024F8DDF804E0DDE902235A
:107E500004B07047D0B50C4B002206460F46FFF722
:107E6000ABFB00F07FF90446FFF72CFB074B002229
:107E7000FFF7A2FB02460B4630463946FFF7E4F90E
:107E800000F070F92146D0BD0000F03D0000F04147
:107E90002DE9F047089D04468E46002B4DD18A42BD
:107EA000944669D9B2FA82F252B101FA02F3C2F1F0
:107EB000200120FA01F10CFA02FC41EA030E944081
:107EC0004FEA1C48210CBEFBF8F61FFA8CF708FBA2
:107ED00016E341EA034306FB07F199420AD91CEB7A
:107EE000030306F1FF3080F01F81994240F21C81AC
:107EF000023E63445B1AA4B2B3FBF8F008FB1033F4
:107F000044EA034400FB07F7A7420AD91CEB040428
:107F100000F1FF3380F00A81A74240F207816444F8
:107F2000023840EA0640E41B00261DB1D44000237D
:107F3000C5E900433146BDE8F0878B4209D9002DE1
:107F400000F0EF800026C5E9000130463146BDE86B
:107F5000F087B3FA83F6002E4AD18B4202D38242D5
:107F600000F2F980841A61EB030301209E46002D84
:107F7000E0D0C5E9004EDDE702B9FFDEB2FA82F2D9
:107F8000002A40F09280A1EB0C014FEA1C471FFA37
:107F90008CFE0126200CB1FBF7F307FB131140EA1E
:107FA00001410EFB03F0884208D91CEB010103F1EB
:107FB000FF3802D2884200F2CB804346091AA4B2AD
:107FC000B1FBF7F007FB101144EA01440EFB00FE81
:107FD000A64508D91CEB040400F1FF3102D2A645E6
:107FE00000F2BB800846A4EB0E0440EA03409CE785
:107FF000C6F12007B34022FA07FC4CEA030C20FA32
:1080000007F401FA06F31C43F9404FEA1C4900FA51
:1080100006F3B1FBF9F8200C1FFA8CFE09FB1811CE
:1080200040EA014108FB0EF0884202FA06F20BD941
:108030001CEB010108F1FF3A80F08880884240F291
:108040008580A8F102086144091AA4B2B1FBF9F0D5
:1080500009FB101144EA014100FB0EFE8E4508D9D0
:108060001CEB010100F1FF346CD28E456AD9023855
:10807000614440EA0840A0FB0294A1EB0E01A1423A
:10808000C846A64656D353D05DB1B3EB080261EBA8
:108090000E0101FA07F722FA06F3F1401F43C5E982
:1080A000007100263146BDE8F087C2F12003D840B8
:1080B0000CFA02FC21FA03F3914001434FEA1C47FA
:1080C0001FFA8CFEB3FBF7F007FB10360B0C43EAEC
:1080D000064300FB0EF69E4204FA02F408D91CEB9C
:1080E000030300F1FF382FD29E422DD9023863449A
:1080F0009B1B89B2B3FBF7F607FB163341EA03413A
:1081000006FB0EF38B4208D91CEB010106F1FF3888
:1081100016D28B4214D9023E6144C91A46EA00467F
:1081200038E72E46284605E70646E3E61846F8E611
:108130004B45A9D2B9EB020864EB0C0E0138A3E75A
:108140004646EAE7204694E74046D1E7D0467BE73B
:10815000023B614432E7304609E76444023842E7B3
:10816000704700BF4A0011D212F5001211D20DD58E
:108170006FF47873B3EB62520ED44FEAC12343F02D
:10818000004343EA505323FA02F070474FF00000D7
:10819000704750EA013002D14FF0FF3070474FF086
:1081A0000000704780B400AF054B5B68044A23F0C1
:1081B0000103536000BFBD465DF8047B704700BFFC
:1081C000002004E080B400AF054B5B68044A23F054
:1081D0000203536000BFBD465DF8047B704700BFDB
:1081E000002004E080B400AF054B5B68044A23F034
:1081F0000403536000BFBD465DF8047B704700BFB9
:10820000002004E080B582B000AF0023FB710C4B6E
:108210001B680B4A43F480731360032001F016F9C6
:108220000F201FF0A1F80346002B02D00123FB71A1
:1082300001E01FF06AF8FB7918460837BD4680BD9B
:108240000040005880B400AF064B1B781A46064B1E
:108250001B681344044A136000BFBD465DF8047BED
:10826000704700BF0C000020E405002080B400AF80
:10827000034B1B681846BD465DF8047B704700BF82
:10828000E405002080B400AF034B1B681846BD46D0
:108290005DF8047B704700BF0800002080B500AF88
:1082A000FFF780FF00BF80BD80B500AFFFF78AFFFA
:1082B00000BF80BD80B500AFFFF794FF00BF80BD59
:1082C00080B483B000AF786039607B689B6823F42A
:1082D0007C123B681A437B689A6000BF0C37BD462E
:1082E0005DF8047B704780B483B000AF786039607C
:1082F0007B689B6823F0E0723B681A437B689A6056
:1083000000BF0C37BD465DF8047B704780B483B076
:1083100000AF78607B689B6803F0E07318460C3709
:10832000BD465DF8047B704780B487B000AFF8604D
:10833000B9607A603B60FB6860331A46BB689B009B
:1083400013447B617B691A68084B13407A6802F01A
:10835000F8413A680A43134343F000427B691A60CC
:1083600000BF1C37BD465DF8047B704700F0FF037B
:1083700080B485B000AF786039607B6860331A469E
:108380003B689B001344FB60FB681B6803F0F843E9
:1083900018461437BD465DF8047B704780B487B03B
:1083A00000AFF860B9607A60FB6860331A46BB685A
:1083B0009B0013447B617B691B6823F000427B6850
:1083C0001A437B691A6000BF1C37BD465DF8047B09
:1083D000704780B487B000AFF860B9607A60FB681E
:1083E00030331A46BB681B0A9B0003F00C0313448E
:1083F0007B617B691A68BB6803F01F031F2101FAC8
:1084000003F3DB431A407B689B0E03F01F01BB683C
:1084100003F01F0301FA03F31A437B691A6000BFDC
:108420001C37BD465DF8047B704780B487B000AF51
:10843000F860B9607A60FB6814331A46BB685B0E5B
:108440009B0003F0040313447B617B691A68BB68DB
:108450001B0D03F01F03072101FA03F3DB431A404E
:10846000BB681B0D03F01F03796801FA03F31A437D
:108470007B691A6000BF1C37BD465DF8047B7047FE
:1084800080B485B000AFF860B9607A60FB68D3F85B
:10849000B020BB68C3F31203DB431A407B6803F0D0
:1084A00018030849D940BB680B40C3F312031A43B1
:1084B000FB68C3F8B02000BF1437BD465DF8047BED
:1084C000704700BFFFFF070080B483B000AF786043
:1084D0007B689B6823F0204323F03F037A68936016
:1084E00000BF0C37BD465DF8047B704780B483B095
:1084F00000AF78607B689B6803F00053B3F1005FC6
:1085000001D1012300E0002318460C37BD465DF879
:10851000047B704780B483B000AF78607B689B6851
:1085200023F0104323F03F0343F080527B689A60AE
:1085300000BF0C37BD465DF8047B704780B483B044
:1085400000AF78607B689B6803F08053B3F1805F75
:1085500001D1012300E0002318460C37BD465DF829
:10856000047B704780B483B000AF78607B689B6801
:1085700023F0004323F03F0343F001027B689A603D
:1085800000BF0C37BD465DF8047B704780B483B0F4
:1085900000AF78607B689B6803F00103012B01D179
:1085A000012300E0002318460C37BD465DF8047B2C
:1085B000704780B483B000AF78607B689B6823F01D
:1085C000004323F03F0343F004027B689A6000BF3E
:1085D0000C37BD465DF8047B704780B483B000AFB4
:1085E00078607B689B6803F00403042B01D10123AE
:1085F00000E0002318460C37BD465DF8047B704749
:1086000080B483B000AF78607B689B6803F0080398
:10861000082B01D1012300E0002318460C37BD468A
:108620005DF8047B7047000080B588B000AF7860CB
:108630000023FB770023BB610023BB607B68002B1A
:1086400001D101232EE17B681B69002B7B685B6DE8
:10865000002B09D178681AF0EFFC7B6800229A653C
:108660007B68002283F850207B681B681846FFF760
:108670003DFF0346002B04D07B681B681846FFF7BC
:1086800023FF7B681B681846FFF758FF0346002B43
:1086900015D17B681B681846FFF73CFF834B1B68AE
:1086A0009B09834AA2FB03239B0901335B00BB6048
:1086B00002E0BB68013BBB60BB68002BF9D17B6863
:1086C0001B681846FFF73AFF0346002B0DD17B6865
:1086D0005B6D43F010027B685A657B689B6D43F0CD
:1086E00001027B689A650123FB777B681B6818464B
:1086F000FFF773FF78617B685B6D03F01003002B5D
:1087000040F0C7807B69002B40F0C3807B685B6DC5
:1087100023F4817343F002027B685A657B681B680F
:108720001846FFF733FF0346002B0BD16148FFF7D4
:108730002DFF0346002B05D17B685B6819465E4818
:10874000FFF7BEFD7B685B7E5A037B685B6B1A4359
:108750007B68DB681A437B689B681A437B6893F8E5
:1087600020301B041343BA691343BB617B6893F841
:108770002030012B06D17B685B6A013B5B04BA6940
:108780001343BB617B689B6A002B09D07B689B6AA3
:1087900003F470727B68DB6A1343BA691343BB61ED
:1087A0007B681B68DA68454B13407A681268B969C0
:1087B0000B43D3607B681B681846FFF70EFF3861D8
:1087C0007B681B681846FFF71BFFF8603B69002BAE
:1087D0003DD1FB68002B3AD17B681B7E9A037B68F6
:1087E00093F830305B001343BB617B681B68DB6828
:1087F00023F4804323F002037A681268B9690B43BB
:10880000D3607B6893F83830012B18D17B681B68E4
:108810001B6923F4FF6323F004037A68D16B7A6841
:10882000126C11437A68526C11437A68926C0A4355
:108830001A437B681B6842F001021A6107E07B68FB
:108840001B681A697B681B6822F001021A617B6849
:108850001B69012B0CD17B681B681B6B23F00F017C
:108860007B68DB695A1E7B681B680A431A6307E052
:108870007B681B681A6B7B681B6822F00F021A6307
:108880007B685B6D23F0030343F001027B685A654C
:1088900007E07B685B6D43F010027B685A6501233B
:1088A000FB77FB7F18462037BD4680BDFC020020C9
:1088B000632D3E05000004500003045007C0F0FF84
:1088C00080B584B000AF78607B681B681846FFF7FE
:1088D00084FE0346002B40D17B6893F85030012B77
:1088E00001D102233CE07B68012283F850207868A4
:1088F00000F00EFC0346FB73FB7B002B28D17B684A
:108900005B6D23F4706323F0010343F480727B6892
:108910005A657B685B6D03F48053B3F5805F06D1C5
:108920007B689B6D23F006027B689A6502E07B689A
:1089300000229A657B681B681C221A607B680022F3
:1089400083F850207B681B681846FFF732FE06E06C
:108950007B68002283F8502001E00223FB73FB7B3D
:1089600018461037BD4680BD80B483B000AF786034
:108970007B681B681B6C18460C37BD465DF8047B92
:108980007047000080B5B6B000AF78603960002352
:1089900087F8D7300023FB607B6893F85030012BB9
:1089A00001D102239FE37B68012283F850207B687A
:1089B0001B681846FFF711FE0346002B40F0848326
:1089C0007B6818683B6859683B681B681A46FFF764
:1089D00000FD7B681B681846FFF7FFFDC7F8D00055
:1089E0007B681B681846FFF70BFEC7F8CC00D7F86A
:1089F000D030002B40F0A681D7F8CC30002B40F0CF
:108A0000A1817B6818683B6819683B689B681A46B7
:108A1000FFF70BFD3B685A697B681B68DB68DB0866
:108A200003F003035B0002FA03F3C7F8C8303B68A6
:108A30001B69042B0AD07B6818683B6819693B687E
:108A40001A68D7F8C830FFF76FFC7BE17B681B68BA
:108A500000211846FFF78CFC0346C3F31203002BDA
:108A60000AD17B681B6800211846FFF781FC03468A
:108A70009B0E03F01F021EE07B681B680021184656
:108A8000FFF776FC0346C7F8BC30D7F8BC3093FA42
:108A9000A3F3C7F8B830D7F8B830C7F8C030D7F864
:108AA000C030002B01D1202304E0D7F8C030B3FA46
:108AB00083F3DBB21A463B681B68C3F31203002B37
:108AC00005D13B681B689B0E03F01F0318E03B6851
:108AD0001B68C7F8B030D7F8B03093FAA3F3C7F8E3
:108AE000AC30D7F8AC30C7F8B430D7F8B430002B7E
:108AF00001D1202304E0D7F8B430B3FA83F3DBB21A
:108B00009A4206D17B681B68002200211846FFF7B5
:108B100045FC7B681B6801211846FFF729FC0346CA
:108B2000C3F31203002B0AD17B681B68012118468E
:108B3000FFF71EFC03469B0E03F01F021EE07B683E
:108B40001B6801211846FFF713FC0346C7F8A43041
:108B5000D7F8A43093FAA3F3C7F8A030D7F8A03021
:108B6000C7F8A830D7F8A830002B01D1202304E0A3
:108B7000D7F8A830B3FA83F3DBB21A463B681B6818
:108B8000C3F31203002B05D13B681B689B0E03F057
:108B90001F0318E03B681B68C7F89830D7F8983077
:108BA00093FAA3F3C7F89430D7F89430C7F89C3001
:108BB000D7F89C30002B01D1202304E0D7F89C305B
:108BC000B3FA83F3DBB29A4206D17B681B680022BA
:108BD00001211846FFF7E2FB7B681B68022118465B
:108BE000FFF7C6FB0346C3F31203002B0AD17B68D1
:108BF0001B6802211846FFF7BBFB03469B0E03F0E0
:108C00001F021EE07B681B6802211846FFF7B0FBBD
:108C10000346C7F88C30D7F88C3093FAA3F3C7F823
:108C20008830D7F88830C7F89030D7F89030002BCC
:108C300001D1202304E0D7F89030B3FA83F3DBB2FC
:108C40001A463B681B68C3F31203002B05D13B682F
:108C50001B689B0E03F01F0316E03B681B68C7F8F8
:108C60008030D7F8803093FAA3F3FB67FB6FC7F827
:108C70008430D7F88430002B01D1202304E0D7F8CA
:108C80008430B3FA83F3DBB29A4206D17B681B6867
:108C9000002202211846FFF781FB7B681B68032135
:108CA0001846FFF765FB0346C3F31203002B0AD1F6
:108CB0007B681B6803211846FFF75AFB03469B0E8F
:108CC00003F01F0217E07B681B6803211846FFF7BB
:108CD0004FFB03467B677B6F93FAA3F33B673B6FC6
:108CE000BB67BB6F002B01D1202303E0BB6FB3FA3E
:108CF00083F3DBB21A463B681B68C3F31203002BF5
:108D000005D13B681B689B0E03F01F0311E03B6815
:108D10001B68BB66BB6E93FAA3F37B667B6EFB6638
:108D2000FB6E002B01D1202303E0FB6EB3FA83F32B
:108D3000DBB29A4206D17B681B68002203211846E9
:108D4000FFF72CFB7B681B681846FFF71FFC0346E8
:108D5000002B40F0C2817B6818683B6819683B684B
:108D6000DB681A46FFF78CFB3B68DB688E4A934250
:108D700040F030817B6818683B681B68C3F31203BE
:108D8000002B0BD13B681B689B0E013303F01F03C4
:108D9000092B94BF01230023DBB219E03B681B6859
:108DA000FB65FB6D93FAA3F3BB65BB6D3B663B6E46
:108DB000002B01D1202303E03B6EB3FA83F3DBB237
:108DC000013303F01F03092B94BF01230023DBB2FF
:108DD000002B79D03B681B68C3F31203002B07D12B
:108DE0003B681B689B0E01339B0603F0F84215E0BD
:108DF0003B681B683B653B6D93FAA3F3FB64FB6C1C
:108E00007B657B6D002B01D1202303E07B6DB3FAE2
:108E100083F3DBB201339B0603F0F8423B681B6827
:108E2000C3F31203002B09D13B681B689B0E01336F
:108E300003F01F03012101FA03F317E03B681B68ED
:108E40007B647B6C93FAA3F33B643B6CBB64BB6CAD
:108E5000002B01D1202303E0BB6CB3FA83F3DBB218
:108E6000013303F01F03012101FA03F342EA030176
:108E70003B681B68C3F31203002B0AD13B681B68D5
:108E80009B0E013303F01F0213465B0013441B05C6
:108E900018E03B681B68BB63BB6B93FAA3F37B636F
:108EA0007B6BFB63FB6B002B01D1202303E0FB6B8F
:108EB000B3FA83F3DBB2013303F01F0213465B0006
:108EC00013441B050B4380E03B681B68C3F312038C
:108ED000002B07D13B681B689B0E01339B0603F0F8
:108EE000F84215E03B681B68FB62FB6A93FAA3F348
:108EF000BB62BB6A3B633B6B002B01D1202303E0C9
:108F00003B6BB3FA83F3DBB201339B0603F0F84209
:108F10003B681B68C3F31203002B09D13B681B6835
:108F20009B0E013303F01F03012101FA03F317E045
:108F30003B681B683B623B6A93FAA3F3FB61FB69E6
:108F40007B627B6A002B01D1202303E07B6AB3FAAA
:108F500083F3DBB2013303F01F03012101FA03F3B2
:108F600042EA03013B681B68C3F31203002B0DD1D7
:108F70003B681B689B0E013303F01F0213465B0026
:108F800013441E3B1B0543F000731DE03B681B6848
:108F90007B617B6993FAA3F33B613B69BB61BB696E
:108FA000002B03D1202305E000007F40BB69B3FA0A
:108FB00083F3DBB2013303F01F0213465B0013445B
:108FC0001E3B1B0543F000730B433A689268194639
:108FD000FFF72BFA3B681A68454B1340002B7CD0F7
:108FE0004448FFF793F9C7F8C4004348FFF7CEFAA7
:108FF0000346002B5ED13B681B68404A934227D151
:10900000D7F8C43003F40003002B21D17B681B6820
:10901000394A934261D1D7F8C43043F4000319466A
:109020003448FFF760F9364B1B689B09354AA2FBB1
:1090300003239B095A1C13465B0013449B00FB60EF
:1090400002E0FB68013BFB60FB68002BF9D144E0C8
:109050003B681B682C4A934213D1D7F8C43003F005
:109060008073002B0DD17B681B68234A934234D157
:10907000D7F8C43043F0807319461E48FFF733F920
:109080002BE03B681B68214A934226D1D7F8C430B5
:1090900003F48003002B20D17B681B68164A93429F
:1090A0001BD1D7F8C43043F4800319461148FFF7A9
:1090B0001AF912E07B685B6D43F020027B685A6509
:1090C000012387F8D73008E07B685B6D43F020020E
:1090D0007B685A65012387F8D7307B68002283F8C4
:1090E000502097F8D7301846D837BD4680BD00BF0E
:1090F000000008800003045000000450000052C724
:10910000FC020020632D3E05000084CB010000809E
:1091100080B584B000AF78600023BB607B681B68BB
:109120001846FFF733FA0346002B5ED17B681B68B5
:109130009A68304B1340002B0DD07B685B6D43F079
:1091400010027B685A657B689B6D43F001027B6867
:109150009A6501234AE07B681B681846FFF702FA0C
:109160002548FFF7D3F8034603F40003002B0FD084
:10917000224B1B689B09224AA2FB03239B09013354
:10918000BB6002E0BB68013BBB60BB68002BF9D150
:10919000FFF76CF8F86021E07B681B681846FFF762
:1091A000F5F90346002B04D17B681B681846FFF7CE
:1091B000D9F9FFF75BF80246FB68D31A022B0DD9E9
:1091C0007B685B6D43F010027B685A657B689B6D22
:1091D00043F001027B689A65012307E07B681B6806
:1091E0001B6803F00103012BD6D10023184610376A
:1091F000BD4680BD3F00008000030450FC020020FB
:10920000632D3E0580B485B000AF78607B6803F0C5
:109210000703FB600C4BDB68BB60BA684FF6FF03CB
:109220001340BB60FB681A02BB68134343F0BF6383
:1092300043F40033BB60044ABB68D36000BF1437FB
:10924000BD465DF8047B704700ED00E080B400AFE0
:10925000044BDB681B0A03F007031846BD465DF8A4
:10926000047B704700ED00E080B483B000AF03469C
:10927000FB7197F90730002B0BDBFB7903F01F0222
:10928000074997F907305B09012000FA02F241F81B
:10929000232000BF0C37BD465DF8047B704700BF3C
:1092A00000E100E080B483B000AF0346FB7197F9A2
:1092B0000730002B12DBFB7903F01F020A4997F9F4
:1092C00007305B09012000FA02F2203341F8232025
:1092D000BFF34F8F00BFBFF36F8F00BF00BF0C37CE
:1092E000BD465DF8047B704700E100E080B483B0C8
:1092F00000AF0346FB7197F90730002B0CDBFB79BD
:1093000003F01F02074997F907305B09012000FAB3
:1093100002F2403341F8232000BF0C37BD465DF810
:10932000047B704700E100E080B483B000AF0346E7
:10933000FB7197F90730002B0CDBFB7903F01F0260
:10934000074997F907305B09012000FA02F2603300
:1093500041F8232000BF0C37BD465DF8047B704701
:1093600000E100E080B483B000AF03463960FB71D8
:1093700097F90730002B0ADB3B68DAB20C4997F902
:1093800007301201D2B20B4483F800230AE03B6895
:10939000DAB20849FB7903F00F03043B1201D2B2A1
:1093A0000B441A7600BF0C37BD465DF8047B70474E
:1093B00000E100E000ED00E080B489B000AFF860AB
:1093C000B9607A60FB6803F00703FB61FB69C3F1D6
:1093D0000703042B28BF0423BB61FB690433062B5E
:1093E00002D9FB69033B00E000237B614FF0FF32B1
:1093F000BB6902FA03F3DA43BB681A407B699A40FF
:109400004FF0FF317B6901FA03F3D9437B680B40CE
:10941000134318462437BD465DF8047B70470000AF
:1094200080B400AFBFF34F8F00BF064BDB6803F47F
:10943000E0620449044B1343CB60BFF34F8F00BF7E
:1094400000BFFDE700ED00E00400FA0580B582B042
:1094500000AF78607868FFF7D5FE00BF0837BD46DB
:1094600080BD80B586B000AF0346B9607A60FB73FB
:10947000FFF7ECFE78617A68B9687869FFF79CFFBE
:10948000024697F90F3011461846FFF76BFF00BFF1
:109490001837BD4680BD80B582B000AF0346FB7172
:1094A00097F907301846FFF7DFFE00BF0837BD46C3
:1094B00080BD80B582B000AF0346FB7197F90730DD
:1094C0001846FFF7EFFE00BF0837BD4680BD80B5E8
:1094D00000AFFFF7A5FF80B582B000AF0346FB7178
:1094E00097F907301846FFF701FF00BF0837BD4660
:1094F00080BD80B582B000AF0346FB7197F907309D
:109500001846FFF711FF00BF0837BD4680BD0000B9
:1095100080B584B000AF78607B68002B01D1012357
:109520008EE07B681B681A46474B9A420FD87B68CF
:109530001B681A46454B1344454AA2FB03231B09EB
:109540009A007B685A647B68424A1A640EE07B6822
:109550001B681A46404B13443D4AA2FB03231B09D8
:109560009A007B685A647B683C4A1A647B680222D2
:1095700083F825207B681B681B68FB60FB6823F46D
:10958000FF4323F07003FB607B689A687B68DB68AD
:109590001A437B681B691A437B685B691A437B68C3
:1095A0009B691A437B68DB691A437B681B6A134318
:1095B000FA681343FB607B681B68FA681A60786876
:1095C00000F080FA7B689B68B3F5804F02D17B681E
:1095D00000225A607B685A687B689B6C02F03F02ED
:1095E0001A607B68DB6C7A68126D5A607B685B6816
:1095F000002B10D07B685B68042B0CD8786800F0D7
:109600009FFA7B685B6D00221A607B689B6D7A68AD
:10961000D26D5A6008E07B6800225A657B680022A0
:109620009A657B680022DA657B680022DA637B68D2
:10963000012283F825207B68002283F82420002360
:1096400018461037BD4680BD07040240F8FFFDBF35
:10965000CDCCCCCC00000240F8FBFDBF00040240A2
:1096600080B586B000AFF860B9607A603B600023D7
:10967000FB75FB6893F82430012B01D1022366E0CF
:10968000FB68012283F82420FB6893F82530DBB2C5
:10969000012B55D1FB68022283F82520FB680022AC
:1096A000DA63FB681B681A68FB681B6822F001021A
:1096B0001A603B687A68B968F86800F0C5F9FB6819
:1096C0001B6B002B08D0FB681B681A68FB681B68C3
:1096D00042F00E021A600FE0FB681B681A68FB6814
:1096E0001B6822F004021A60FB681B681A68FB689A
:1096F0001B6842F00A021A60FB689B6C1B6803F44B
:109700008033002B07D0FB689B6C1A68FB689B6C4E
:1097100042F480721A60FB685B6D002B07D0FB6817
:109720005B6D1A68FB685B6D42F480721A60FB68BF
:109730001B681A68FB681B6842F001021A6005E0AA
:10974000FB68002283F824200223FB75FB7D18466A
:109750001837BD4680BD80B483B000AF78607B68A9
:10976000002B01D101234FE07B6893F82530DBB259
:10977000022B08D07B680422DA637B68002283F81E
:109780002420012340E07B681B681A687B681B6803
:1097900022F00E021A607B689B6C1A687B689B6CD7
:1097A00022F480721A607B681B681A687B681B68E9
:1097B00022F001021A607B685B6C03F01C027B687C
:1097C0001B6C012101FA02F25A607B68DB6C7A683B
:1097D000126D5A607B685B6D002B0CD07B685B6DF3
:1097E0001A687B685B6D22F480721A607B689B6DDF
:1097F0007A68D26D5A607B68012283F825207B68E5
:10980000002283F82420002318460C37BD465DF85B
:10981000047B704780B584B000AF78600023FB7391
:109820007B6893F82530DBB2022B05D07B680422DD
:10983000DA630123FB7347E07B681B681A687B6867
:109840001B6822F00E021A607B681B681A687B682E
:109850001B6822F001021A607B689B6C1A687B68A7
:109860009B6C22F480721A607B685B6C03F01C02B4
:109870007B681B6C012101FA02F25A607B68DB6C89
:109880007A68126D5A607B685B6D002B0CD07B6828
:109890005B6D1A687B685B6D22F480721A607B686E
:1098A0009B6D7A68D26D5A607B68012283F825200F
:1098B0007B68002283F824207B689B6B002B03D0FD
:1098C0007B689B6B78689847FB7B18461037BD46D2
:1098D00080BD80B584B000AF78607B681B6C1B686E
:1098E000FB607B681B681B68BB607B685B6C03F07C
:1098F0001C0304229A40FB681340002B26D0BB684F
:1099000003F00403002B21D07B681B681B6803F065
:109910002003002B07D17B681B681A687B681B68D3
:1099200022F004021A607B685B6C03F01C027B6807
:109930001B6C042101FA02F25A607B681B6B002B3E
:1099400071D07B681B6B786898476CE07B685B6CB8
:1099500003F01C0302229A40FB681340002B2ED018
:10996000BB6803F00203002B29D07B681B681B68CF
:1099700003F02003002B0BD17B681B681A687B68FF
:109980001B6822F00A021A607B68012283F82520F6
:109990007B685B6C03F01C027B681B6C022101FA84
:1099A00002F25A607B68002283F824207B68DB6A1D
:1099B000002B38D07B68DB6A7868984733E07B6897
:1099C0005B6C03F01C0308229A40FB681340002BD9
:1099D0002AD0BB6803F00803002B25D07B681B68E6
:1099E0001A687B681B6822F00E021A607B685B6C49
:1099F00003F01C027B681B6C012101FA02F25A6021
:109A00007B680122DA637B68012283F825207B686A
:109A1000002283F824207B685B6B002B04D07B68DA
:109A20005B6B7868984700BF00BF1037BD4680BDAC
:109A300080B483B000AF78607B68DB6B18460C376E
:109A4000BD465DF8047B704780B485B000AFF86018
:109A5000B9607A603B60FB68DB6CFA68126D5A6033
:109A6000FB685B6D002B04D0FB689B6DFA68D26DC0
:109A70005A60FB685B6C03F01C02FB681B6C0121E5
:109A800001FA02F25A60FB681B683A685A60FB6888
:109A90009B68102B08D1FB681B687A689A60FB688A
:109AA0001B68BA68DA6007E0FB681B68BA689A60EE
:109AB000FB681B687A68DA6000BF1437BD465DF842
:109AC000047B704780B485B000AF78607B681B680A
:109AD0001A46174B9A420AD87B685B6C9B089B001E
:109AE00003F1804303F502337A68936407E07B68EF
:109AF0005B6C9B089A000F4B13447A6893647B68F5
:109B00001B68DBB2083B0C4AA2FB03231B09FB606A
:109B10007B680A4ADA64FB6803F01F0301229A405B
:109B20007B681A6500BF1437BD465DF8047B70473B
:109B3000070402401C080240CDCCCCCC8008024077
:109B400080B485B000AF78607B685B6803F03F034A
:109B5000FB60FA680B4B13449B001A467B685A65FE
:109B60007B68094A9A65FB68013B03F00303012205
:109B70009A407B68DA6500BF1437BD465DF8047B08
:109B8000704700BF3F8200104009024080B586B098
:109B900000AFF860B960C7E900231C4B1B78012BAC
:109BA00001D102232DE0194B01221A70174B00221C
:109BB0005A604FF47A7000F069F80346FB75FB7D3C
:109BC000002B1AD1FB68012B05D1D7E90023B86817
:109BD00000F0CCF804E03B681946B86821F094F92D
:109BE0004FF47A7000F052F80346FB75084B5A693F
:109BF000FB68DB43064913404B61044B00221A709B
:109C0000FB7D18461837BD4680BD00BFE805002023
:109C10000040005880B483B000AF0023FB710B4BB1
:109C20005B69002B0BDA094B094A9A60074B094A1A
:109C30009A60064B5B69002B01DA0123FB71FB790B
:109C400018460C37BD465DF8047B7047004000584D
:109C500023016745AB89EFCD80B483B000AF00230B
:109C6000FB71094B5B69084A43F000435361064BA3
:109C70005B69002B01DB0123FB71FB7918460C3774
:109C8000BD465DF8047B70470040005880B584B045
:109C900000AF7860FEF7EAFAB86009E0FEF7E6FA8E
:109CA0000246BB68D31A7A689A4201D8032354E06B
:109CB0002C4B1B6903F48033B3F5803FEED0294B66
:109CC0001B69FB60FB6803F00103002B02D0254BEE
:109CD00001221A61FB6803F40043002B07D0214BDB
:109CE0004FF400421A61FB6823F40043FB60FA68FA
:109CF0004CF2FA331340FB60FB6803F04043002B47
:109D000007D0184B9A69FB6803F040431549134389
:109D10008B61FB6823F04043002B04D0114AFB68A1
:109D200023F040431361FB68002B0ED00E4AFB6802
:109D30005360012311E0FEF799FA0246BB68D31A7B
:109D40007A689A4201D8032307E0064B1B6903F4A3
:109D50008023B3F5802FEED0002318461037BD4680
:109D600080BD00BF00400058E805002080B485B0E9
:109D700000AFF860C7E900230E4B5B690D4A43F062
:109D800001035361FB683A681A60BFF36F8F00BF2D
:109D9000D7E900014FF000024FF000030A00002352
:109DA000F968043113460B6000BF1437BD465DF8F7
:109DB000047B70470040005880B584B000AF7860E5
:109DC0003960244B1B78012B01D102233DE0214B4C
:109DD00001221A701F4B00225A604FF47A70FFF76D
:109DE00055FF0346FB73FB7B002B2AD17B681B6866
:109DF000022B24D13B684FF0FF321A607B685B680E
:109E0000BB6012E0B86800F027F84FF47A70FFF7F3
:109E10003DFF0346FB73FB7B002B03D03B68BA6816
:109E20001A600AE0BB680133BB607B685A687B68D4
:109E30009B681344BA689A42E4D300F06FF800F0CC
:109E400025F8044B00221A70FB7B18461037BD46DC
:109E500080BD00BFE805002080B483B000AF78600B
:109E6000094B5B6923F4FF627B68DB001343064AFE
:109E700043F4803343F00203536100BF0C37BD4607
:109E80005DF8047B704700BF0040005880B400AF0D
:109E9000214B1B6803F40073B3F5007F17D11E4BF1
:109EA0001B681D4A23F4007313601B4B1B681A4A7E
:109EB00043F400631360184B1B68174A23F40063D4
:109EC0001360154B1B68144A43F400731360124B64
:109ED0001B6803F48063B3F5806F17D10E4B1B68CA
:109EE0000D4A23F4806313600B4B1B680A4A43F44A
:109EF00080531360084B1B68074A23F48053136098
:109F0000054B1B68044A43F48063136000BFBD46E1
:109F10005DF8047B704700BF0040005880B400AF7C
:109F2000064B5B69054A23F4FF6323F00203536188
:109F300000BFBD465DF8047B704700BF004000587D
:109F400080B487B000AF7860396000237B614CE15A
:109F50003B681A6801217B6901FA03F31340FB6037
:109F6000FB68002B00F03E813B685B6803F0030355
:109F7000012B05D03B685B6803F00303022B30D153
:109F80007B689B683B617B695B00032202FA03F3F9
:109F9000DB433A6913403B613B68DA687B695B00ED
:109FA00002FA03F33A6913433B617B683A699A60AA
:109FB0007B685B683B6101227B6902FA03F3DB4348
:109FC0003A6913403B613B685B681B0903F001027F
:109FD0007B6902FA03F33A6913433B617B683A6990
:109FE0005A603B685B6803F00303032B17D07B6860
:109FF000DB683B617B695B00032202FA03F3DB430E
:10A000003A6913403B613B689A687B695B0002FADE
:10A0100003F33A6913433B617B683A69DA603B6852
:10A020005B6803F00303022B23D17B69DA087B68AA
:10A03000083253F822303B617B6903F007039B0031
:10A040000F2202FA03F3DB433A6913403B613B689A
:10A050001A697B6903F007039B0002FA03F33A696C
:10A0600013433B617B69DA087B680832396943F83E
:10A0700022107B681B683B617B695B00032202FA4C
:10A0800003F3DB433A6913403B613B685B6803F0D1
:10A0900003027B695B0002FA03F33A6913433B61F5
:10A0A0007B683A691A603B685B6803F44033002BB5
:10A0B00000F09880544A7B699B08023352F82330A1
:10A0C0003B617B6903F003039B000F2202FA03F359
:10A0D000DB433A6913403B617B68B3F1904F19D081
:10A0E0007B684A4A934213D07B68494A93420DD019
:10A0F0007B68484A934207D07B68474A934201D124
:10A10000042308E0072306E0032304E0022302E01F
:10A11000012300E000237A6902F0030292009340D9
:10A120003A6913433B6138497B699B0802333A69BA
:10A1300041F82320394B1B683B61FB68DB433A69DC
:10A1400013403B613B685B6803F48013002B03D032
:10A150003A69FB6813433B61304A3B6913602F4BFC
:10A160005B683B61FB68DB433A6913403B613B68DA
:10A170005B6803F40013002B03D03A69FB681343B8
:10A180003B61264A3B695360244BD3F880303B61E6
:10A19000FB68DB433A6913403B613B685B6803F44F
:10A1A0008033002B03D03A69FB6813433B611B4AA1
:10A1B0003B69C2F88030194BD3F884303B61FB68AF
:10A1C000DB433A6913403B613B685B6803F400334F
:10A1D000002B03D03A69FB6813433B610F4A3B698C
:10A1E000C2F884307B6901337B613B681A687B6904
:10A1F00022FA03F3002B7FF4ABAE00BF00BF1C3785
:10A20000BD465DF8047B7047000001400004004833
:10A2100000080048000C00480010004800080058E2
:10A2200080B485B000AF78600B467B807B681A698C
:10A230007B881340002B02D00123FB7301E0002335
:10A24000FB73FB7B18461437BD465DF8047B7047F3
:10A2500080B483B000AF78600B467B8013467B7080
:10A260007B78002B03D07A887B689A6102E07A8839
:10A270007B689A6200BF0C37BD465DF8047B70476F
:10A2800080B582B000AF0346FB80084BDA68FB88DC
:10A290001340002B06D0054AFB88D360FB88184684
:10A2A00009F02CFC00BF0837BD4680BD00080058EF
:10A2B00080B582B000AF0A4BDB687B60084B1A6840
:10A2C0007B68DB43064913400B60054A7B6853609B
:10A2D000786800F007F800BF0837BD4680BD00BFB2
:10A2E0000015005880B483B000AF786000BF0C3711
:10A2F000BD465DF8047B704780B582B000AF7860E2
:10A300007B68002B01D1012381E07B6893F8413009
:10A31000DBB2002B06D17B68002283F840207868EE
:10A320001CF0BAFA7B68242283F841207B681B6802
:10A330001A687B681B6822F001021A607B685A6801
:10A340007B681B6822F070621A617B681B689A68E0
:10A350007B681B6822F400429A607B68DB68012BF3
:10A3600007D17B689A687B681B6842F400429A6058
:10A3700006E07B689A687B681B6842F404429A6036
:10A380007B68DB68022B04D17B681B684FF400629A
:10A390005A607B681B685B687A68126843F00073D8
:10A3A00043F4004353607B681B68DA687B681B6872
:10A3B00022F40042DA607B681A697B685B6942EAD2
:10A3C00003017B689B691A027B681B680A43DA6099
:10A3D0007B68D9697B681A6A7B681B680A431A60C4
:10A3E0007B681B681A687B681B6842F001021A6070
:10A3F0007B6800225A647B68202283F841207B68B6
:10A4000000221A637B68002283F84220002318464A
:10A410000837BD4680BD000080B588B002AFF86047
:10A42000084611461A4603467B810B463B8113467C
:10A43000FB80FB6893F84130DBB2202B40F0F980C1
:10A440003B6A002B02D0BB8C002B05D1FB684FF47C
:10A4500000725A640123EDE0FB6893F84030012B51
:10A4600001D10223E6E0FB68012283F84020FDF7DA
:10A47000FDFE78617B690093192301224FF40041AE
:10A48000F86800F0C3FA0346002B01D00123D1E0A5
:10A49000FB68212283F84120FB68402283F8422098
:10A4A000FB6800225A64FB683A6A5A62FB68BA8CFD
:10A4B0005A85FB6800225A63F8883A8979897B6952
:10A4C0000193BB6A00930346F86800F0D3F9034692
:10A4D000002B05D0FB68002283F840200123A9E06F
:10A4E000FB685B8D9BB2FF2B0ED9FB68FF221A85A0
:10A4F000FB681B8DDAB27989002300934FF08073DB
:10A50000F86800F02BFC0FE0FB685B8D9AB2FB68EB
:10A510001A85FB681B8DDAB27989002300934FF00E
:10A520000073F86800F01AFC7A69B96AF86800F0FC
:10A53000ADFA0346002B01D001237BE0FB685B6A88
:10A540001A78FB681B689A62FB685B6A5A1CFB6896
:10A550005A62FB685B8D9BB2013B9AB2FB685A85DD
:10A56000FB681B8D013B9AB2FB681A85FB685B8D0B
:10A570009BB2002B34D0FB681B8D002B30D17B6944
:10A580000093BB6A00228021F86800F03FFA03467E
:10A59000002B01D001234DE0FB685B8D9BB2FF2BAC
:10A5A0000ED9FB68FF221A85FB681B8DDAB2798908
:10A5B000002300934FF08073F86800F0CFFB0FE0AA
:10A5C000FB685B8D9AB2FB681A85FB681B8DDAB25B
:10A5D0007989002300934FF00073F86800F0BEFB08
:10A5E000FB685B8D9BB2002B9ED17A69B96AF868D3
:10A5F00000F08CFA0346002B01D001231AE0FB681F
:10A600001B682022DA61FB681B685968FB681A68BE
:10A610000A4B0B405360FB68202283F84120FB6803
:10A62000002283F84220FB68002283F840200023A8
:10A6300000E0022318461837BD4680BD00E800FE42
:10A6400080B588B002AFF860084611461A46034646
:10A650007B810B463B811346FB80FB6893F84130BE
:10A66000DBB2202B40F0FD803B6A002B02D0BB8C7C
:10A67000002B05D1FB684FF400725A640123F1E00E
:10A68000FB6893F84030012B01D10223EAE0FB681C
:10A69000012283F84020FDF7E9FD78617B69009392
:10A6A000192301224FF40041F86800F0AFF9034686
:10A6B000002B01D00123D5E0FB68222283F8412042
:10A6C000FB68402283F84220FB6800225A64FB6842
:10A6D0003A6A5A62FB68BA8C5A85FB6800225A6350
:10A6E000F8883A8979897B690193BB6A00930346AC
:10A6F000F86800F013F90346002B05D0FB68002230
:10A7000083F840200123ADE0FB685B8D9BB2FF2BFB
:10A710000ED9FB68FF221A85FB681B8DDAB2798996
:10A72000524B00934FF08073F86800F017FB0FE076
:10A73000FB685B8D9AB2FB681A85FB681B8DDAB2E9
:10A7400079894A4B00934FF00073F86800F006FBDC
:10A750007B690093BB6A00220421F86800F056F977
:10A760000346002B01D001237CE0FB681B685A6A7A
:10A77000FB685B6AD2B21A70FB685B6A5A1CFB68A2
:10A780005A62FB681B8D013B9AB2FB681A85FB6815
:10A790005B8D9BB2013B9AB2FB685A85FB685B8D6F
:10A7A0009BB2002B34D0FB681B8D002B30D17B6912
:10A7B0000093BB6A00228021F86800F027F9034665
:10A7C000002B01D001234DE0FB685B8D9BB2FF2B7A
:10A7D0000ED9FB68FF221A85FB681B8DDAB27989D6
:10A7E000002300934FF08073F86800F0B7FA0FE091
:10A7F000FB685B8D9AB2FB681A85FB681B8DDAB229
:10A800007989002300934FF00073F86800F0A6FAEE
:10A81000FB685B8D9BB2002B9AD17A69B96AF868A4
:10A8200000F074F90346002B01D001231AE0FB6805
:10A830001B682022DA61FB681B685968FB681A688C
:10A840000B4B0B405360FB68202283F84120FB68D0
:10A85000002283F84220FB68002283F84020002376
:10A8600000E0022318461837BD4680BD0024008052
:10A8700000E800FE80B586B002AFF86008461146D9
:10A880001A4603467B810B463B811346FB80FB88BF
:10A89000DAB27989204B00934FF08073F86800F0AA
:10A8A0005DFAFA69B969F86800F0F0F80346002B20
:10A8B00001D001232CE0FB88012B05D13B89DAB2C2
:10A8C000FB681B689A6215E03B891B0A9BB2DAB2EF
:10A8D000FB681B689A62FA69B969F86800F0D6F8F3
:10A8E0000346002B01D0012312E03B89DAB2FB685A
:10A8F0001B689A62FB690093BB6900228021F8689B
:10A9000000F084F80346002B01D0012300E000236F
:10A9100018461037BD4680BD0020008080B586B047
:10A9200002AFF860084611461A4603467B810B4683
:10A930003B811346FB80FB88DAB27989204B009378
:10A940000023F86800F00AFAFA69B969F86800F0BB
:10A950009DF80346002B01D001232CE0FB88012B3E
:10A9600005D13B89DAB2FB681B689A6215E03B8926
:10A970001B0A9BB2DAB2FB681B689A62FA69B96972
:10A98000F86800F083F80346002B01D0012312E0A1
:10A990003B89DAB2FB681B689A62FB690093BB696A
:10A9A00000224021F86800F031F80346002B01D066
:10A9B000012300E0002318461037BD4680BD00BFCC
:10A9C0000020008080B483B000AF78607B681B6893
:10A9D0009B6903F00203022B03D17B681B680022F2
:10A9E0009A627B681B689B6903F00103012B07D007
:10A9F0007B681B689A697B681B6842F001029A6158
:10AA000000BF0C37BD465DF8047B704780B584B04D
:10AA100000AFF860B9603B601346FB7122E03B6811
:10AA2000B3F1FF3F1ED0FDF721FC0246BB69D31AEC
:10AA30003A689A4202D33B68002B13D1FB685B6CE7
:10AA400043F02002FB685A64FB68202283F841200F
:10AA5000FB68002283F84220FB68002283F8402034
:10AA600001230FE0FB681B689A69BB681340BA6852
:10AA70009A420CBF01230023DBB21A46FB799A42AB
:10AA8000CDD0002318461037BD4680BD80B584B0B8
:10AA900000AFF860B9607A602CE07A68B968F8684D
:10AAA00000F070F80346002B01D001232AE0BB68B8
:10AAB000B3F1FF3F1ED0FDF7D9FB02467B68D31AE6
:10AAC000BA689A4202D3BB68002B13D1FB685B6C57
:10AAD00043F02002FB685A64FB68202283F841207F
:10AAE000FB68002283F84220FB68002283F84020A4
:10AAF000012307E0FB681B689B6903F00203022B3C
:10AB0000CBD1002318461037BD4680BD80B584B038
:10AB100000AFF860B9607A6028E07A68B968F868D0
:10AB200000F030F80346002B01D0012326E0FDF7AA
:10AB30009DFB02467B68D31ABA689A4202D3BB686F
:10AB4000002B13D1FB685B6C43F02002FB685A6456
:10AB5000FB68202283F84120FB68002283F8422012
:10AB6000FB68002283F84020012307E0FB681B6894
:10AB70009B6903F02003202BCFD100231846103708
:10AB8000BD4680BD80B58AB000AFF860B9607A601C
:10AB9000002387F82730FB681B689B69BB61002393
:10ABA0003B627B68FB61BB6903F01003002B75D02F
:10ABB000FB681B681022DA6156E0BB68B3F1FF3F07
:10ABC00052D0FDF753FB0246FB69D31ABA689A428A
:10ABD00002D3BB68002B47D1FB681B685B6803F49A
:10ABE00080437B61FB6893F84230FB74FB681B6811
:10ABF0009B6903F40043B3F5004F2ED17B69B3F595
:10AC0000804F2AD0FB7C202B27D0FB681B685A681A
:10AC1000FB681B6842F480425A60FDF727FBF8612D
:10AC20001BE0FDF723FB0246FB69D31A192B14D94D
:10AC3000FB685B6C43F02002FB685A64FB682022CF
:10AC400083F84120FB68002283F84220FB68002241
:10AC500083F84020012387F82730FB681B689B6935
:10AC600003F02003202BDCD1FB681B689B6903F0F9
:10AC70002003202B03D097F82730002B9DD097F886
:10AC80002730002B03D1FB681B682022DA613B6A66
:10AC900043F004033B62012387F82730FB681B68FD
:10ACA0009B69BB61BB6903F48073002B0BD03B6ACB
:10ACB00043F001033B62FB681B684FF48072DA616A
:10ACC000012387F82730BB6903F48063002B0BD086
:10ACD0003B6A43F008033B62FB681B684FF48062E9
:10ACE000DA61012387F82730BB6903F40073002B76
:10ACF0000BD03B6A43F002033B62FB681B684FF4D6
:10AD00000072DA61012387F8273097F82730002B8B
:10AD10001CD0F868FFF756FEFB681B685968FB6893
:10AD20001A680D4B0B405360FB685A6C3B6A1A4320
:10AD3000FB685A64FB68202283F84120FB680022EC
:10AD400083F84220FB68002283F8402097F82730E0
:10AD500018462837BD4680BD00E800FE80B487B0A5
:10AD600000AFF8607B600B467B8113467B727B896A
:10AD7000C3F309027B7A1B0403F47F031A437B6845
:10AD80001A433B6A134323F000437B61FB681B6853
:10AD90005A683B6A5B0D03F48061084B0B43DB434D
:10ADA00002EA0301FB681B687A690A435A6000BF24
:10ADB0001C37BD465DF8047B704700BFFF63FF038F
:10ADC00080B483B000AF786039607B6893F841301D
:10ADD000DBB2202B38D17B6893F84030012B01D1B6
:10ADE000022332E07B68012283F840207B68242222
:10ADF00083F841207B681B681A687B681B6822F017
:10AE000001021A607B681B681A687B681B6822F461
:10AE100080521A607B681B6819687B681B683A68F7
:10AE20000A431A607B681B681A687B681B6842F0DB
:10AE300001021A607B68202283F841207B6800228F
:10AE400083F84020002300E0022318460C37BD465B
:10AE50005DF8047B704780B485B000AF78603960DE
:10AE60007B6893F84130DBB2202B39D17B6893F8B3
:10AE70004030012B01D1022333E07B68012283F8AB
:10AE800040207B68242283F841207B681B681A6875
:10AE90007B681B6822F001021A607B681B681B68D4
:10AEA000FB60FB6823F47063FB603B681B02FA687D
:10AEB0001343FB607B681B68FA681A607B681B6839
:10AEC0001A687B681B6842F001021A607B682022C6
:10AED00083F841207B68002283F84020002300E0B3
:10AEE000022318461437BD465DF8047B7047000006
:10AEF00080B584B000AF78600023FB737B68002BC3
:10AF00001ED0134BBB607B6893F83830DBB2002B4C
:10AF100002D178681BF036FDB86800F05BF8BB68BA
:10AF20001B6843F00112BB681A60786800F02CF8C7
:10AF30007B6800225A637B68012283F8382001E095
:10AF40000123FB73FB7B18461037BD4680BD00BF55
:10AF5000000C005880B485B000AFF860B9601346AB
:10AF6000FB7100BF1437BD465DF8047B704780B4A9
:10AF700085B000AFF860B9601346FB7100BF1437AD
:10AF8000BD465DF8047B704780B485B000AF786043
:10AF90000023FB600FE07A68FB689B0013440B4AB8
:10AFA0005A607A68FB6806339B001344084A5A606B
:10AFB000FB680133FB60FB68052BECD900BF00BFC9
:10AFC0001437BD465DF8047B704700BF55AF0008DD
:10AFD0006FAF000880B483B000AF78607B68002258
:10AFE0001A607B684FF03F125A607B683F229A607C
:10AFF00000BF0C37BD465DF8047B704780B483B05A
:10B0000000AF78604FF0B043D3F888207B681B0C0A
:10B010001B04DB431A407B681B044FF0B041134311
:10B02000C1F8883000BF0C37BD465DF8047B70471F
:10B0300080B483B000AF78604FF0B043D3F888207D
:10B040007B6813401A0C7B68134318460C37BD46C7
:10B050005DF8047B704780B483B000AF78604FF038
:10B06000B0439A6B4FF0B0417B6813438B6300BFD2
:10B070000C37BD465DF8047B704780B483B000AFE9
:10B0800078604FF0B043DA6B4FF0B0417B68134308
:10B09000CB6300BF0C37BD465DF8047B704780B4BE
:10B0A00083B000AF78604FF0B0439A6B7B68DB43AE
:10B0B0004FF0B04113408B6300BF0C37BD465DF8C5
:10B0C000047B704780B483B000AF78604FF0B0432A
:10B0D000DA6B7B68DB434FF0B0411340CB6300BFBA
:10B0E0000C37BD465DF8047B7047000080B584B026
:10B0F00000AF78607B68002B01D101238FE07B6873
:10B100005B68012B7B6893F83630DBB2002B06D1ED
:10B110007B68002283F8352078681BF09FFC7B68F1
:10B12000022283F836207B681B68DB68FB607B6843
:10B130005B68012B04D07B689B6AB3F5000F03D1D9
:10B14000FB6823F01E03FB607B685B694FF6FF72B0
:10B15000934205D0FB6823F4604323F0C003FB60F7
:10B16000FA68314B1340FB607B685A687B689B68C8
:10B170001A437B681B6A1A437B685B6A1A437B68C5
:10B180009B6A1343FA681343FB607B685B68002B80
:10B1900007D17B68DA697B681B691343FA6813433C
:10B1A000FB607B685B68012B04D07B689B6AB3F50E
:10B1B000000F07D17B68DA687B681B691343FA6864
:10B1C0001343FB607B685B694FF6FF7293420AD0C2
:10B1D0007B685A697B689B691A437B68DB69134308
:10B1E000FA681343FB607B681B68FA68DA607B6867
:10B1F0001B680E4A934208D17B68D96A7B681A6B38
:10B200007B681B680A431A6204E07B681B687A68E3
:10B21000D26A1A627B68012283F83620002318461E
:10B220001037BD4680BD00BFFEF119FF007C004015
:10B2300080B584B000AFF860B9607A60FB68022224
:10B2400083F83620FB681B68384A934208D1384B94
:10B25000D3F88030364A43F00053C2F8803007E01C
:10B26000334BD3F88030324A43F08043C2F8803009
:10B27000FB681B68DA68FB681B6842F40022DA602E
:10B28000FB681B681A69FB681B6842F001021A61BF
:10B29000FB681B6810225A60FB681B68BA689A61D9
:10B2A0001021F86800F036F90346032B01D103237F
:10B2B00038E0FB681B6808225A60FB681B687A68E4
:10B2C0005A610821F86800F025F90346032B01D1E3
:10B2D000032327E0F86800F04DF9F86800F00BF957
:10B2E0000346032B01D103231CE0FB681B689A680B
:10B2F000FB681B6842F001029A60FB681B681A69D0
:10B30000FB681B6842F001021A61FB681B681A693E
:10B31000FB681B6842F004021A61FB68012283F893
:10B320003620002318461037BD4680BD007C004003
:10B330000008005880B582B000AF78607B681B6859
:10B340001B6803F00103012B0DD17B681B689B6810
:10B3500003F00103012B06D17B681B6801225A60B0
:10B36000786800F082F87B681B681B6803F00203B2
:10B37000022B0DD17B681B689B6803F00203022B34
:10B3800006D17B681B6802225A60786800F077F863
:10B390007B681B681B6803F00403042B0DD17B68DA
:10B3A0001B689B6803F00403042B06D17B681B68B1
:10B3B00004225A60786800F06CF87B681B681B6890
:10B3C00003F00803082B0DD17B681B689B6803F012
:10B3D0000803082B06D17B681B6808225A6078682E
:10B3E00000F061F87B681B681B6803F01003102BEA
:10B3F0000DD17B681B689B6803F01003102B06D1EE
:10B400007B681B6810225A60786800F056F87B68E9
:10B410001B681B6803F02003202B0DD17B681B6881
:10B420009B6803F02003202B06D17B681B68202239
:10B430005A60786800F04BF87B681B681B6803F063
:10B440004003402B0DD17B681B689B6803F04003D1
:10B45000402B06D17B681B6840225A60786800F058
:10B4600040F800BF0837BD4680BD80B483B000AF50
:10B47000786000BF0C37BD465DF8047B704780B430
:10B4800083B000AF786000BF0C37BD465DF8047B29
:10B49000704780B483B000AF786000BF0C37BD4602
:10B4A0005DF8047B704780B483B000AF786000BF64
:10B4B0000C37BD465DF8047B704780B483B000AFA5
:10B4C000786000BF0C37BD465DF8047B704780B4E0
:10B4D00083B000AF786000BF0C37BD465DF8047BD9
:10B4E000704780B483B000AF786000BF0C37BD46B2
:10B4F0005DF8047B704780B483B000AF78607B68F0
:10B5000093F83630DBB218460C37BD465DF8047B45
:10B510007047000080B485B000AF786039600023C8
:10B52000FB73124B1B68124AA2FB03239B0B4FF4C5
:10B530007A7202FB03F3BB60BB68013BBB60BB6874
:10B54000002B01D10323FB737B681B681A683B68DF
:10B5500013403A689A4202D0BB68002BECD1FB7BC7
:10B5600018461437BD465DF8047B7047FC02002086
:10B570005917B7D180B58CB000AF78600023FB625B
:10B58000EFF31083FB60FB68BB6201233B613B6907
:10B5900083F3108800BF7B681B68624A934203D024
:10B5A000614A934206D00BE04FF44020FFF740FD84
:10B5B000F86205E04FF44010FFF73AFDF86200BF73
:10B5C0007B681B689B687B627B681B68DB683B62EF
:10B5D0007B681B685B69FB617B681B689B69BB615F
:10B5E0007B681B681B6A7B617B681B684D4A9342C2
:10B5F00003D04D4A934209D00FE04FF00040FFF7CF
:10B600002AFD4FF00040FFF74AFD06E02020FFF73B
:10B6100034FD2020FFF756FD00BFFB69002B02D14F
:10B62000BB69002B5FD07B681B683E4A934203D006
:10B630003D4A934205D009E04FF44020FFF7DEFC7D
:10B6400004E04FF44010FFF7D9FC00BFFB69002B6A
:10B650001AD07B681B681A697B681B6842F001027C
:10B660001A617B681B68FA695A6108217868FFF7DC
:10B6700051FF0346032B03D17B68032283F8362056
:10B680007B681B6808225A60BB69002B1AD07B6854
:10B690001B681A697B681B6842F001021A617B68AB
:10B6A0001B68BA699A6110217868FFF733FF034677
:10B6B000032B03D17B68032283F836207B681B6849
:10B6C00010225A607B681B68164A934203D0164AC0
:10B6D000934204D008E0F86AFFF790FC04E0F86AAF
:10B6E000FFF78CFC00E000BF7B681B681A697B6871
:10B6F0001B6822F001021A617B681B687A6A9A60F3
:10B700007B681B683A6ADA607B681B687A691A6230
:10B71000BB6ABB60BB6883F3108800BF00BF3037D3
:10B72000BD4680BD007C00400094004080B400AF66
:10B73000054B1B68044A43F48073136000BFBD4689
:10B740005DF8047B704700BF0004005880B400AF70
:10B75000044B1B6803F4C0631846BD465DF8047BC8
:10B76000704700BF0004005880B400AF4FF0B043F2
:10B770001B6803F48013B3F5801F01D1012300E09F
:10B7800000231846BD465DF8047B704780B400AFC7
:10B790004FF0B0431B684FF0B04243F400231360F6
:10B7A00000BFBD465DF8047B704780B400AF4FF02A
:10B7B000B0431B684FF0B04243F48033136000BFC6
:10B7C000BD465DF8047B704780B400AF4FF0B043D6
:10B7D0001B684FF0B04223F48033136000BFBD46B6
:10B7E0005DF8047B704780B400AF4FF0B0431B6836
:10B7F00003F40033B3F5003F01D1012300E000233F
:10B800001846BD465DF8047B704780B400AF4FF02A
:10B81000B0431B684FF0B04243F48073136000BF25
:10B82000BD465DF8047B704780B400AF4FF0B04375
:10B830001B684FF0B04223F48073136000BFBD4615
:10B840005DF8047B704780B400AF4FF0B0431B68D5
:10B8500003F48063B3F5806F01D1012300E000237E
:10B860001846BD465DF8047B704780B483B000AFD6
:10B8700078604FF0B0435B6823F0FE427B681B06A4
:10B880004FF0B04113434B6000BF0C37BD465DF82D
:10B89000047B704780B400AF4FF0B043D3F89830CA
:10B8A0004FF0B04243F00103C2F8983000BFBD46EC
:10B8B0005DF8047B704780B400AF4FF0B043D3F81D
:10B8C00098304FF0B04223F00103C2F8983000BF27
:10B8D000BD465DF8047B704780B400AF4FF0B043C5
:10B8E000D3F8983003F00203022B01D1012300E0CA
:10B8F00000231846BD465DF8047B704780B400AF56
:10B900004FF0B043D3F890304FF0B04243F0010312
:10B91000C2F8903000BFBD465DF8047B704780B42C
:10B9200000AF4FF0B043D3F890304FF0B04223F067
:10B930000103C2F8903000BFBD465DF8047B70473C
:10B9400080B400AF4FF0B043D3F890304FF0B04226
:10B9500043F00403C2F8903000BFBD465DF8047B9D
:10B96000704780B400AF4FF0B043D3F890304FF041
:10B97000B04223F00403C2F8903000BFBD465DF82A
:10B98000047B704780B400AF4FF0B043D3F89030E1
:10B9900003F00203022B01D1012300E0002318462B
:10B9A000BD465DF8047B704780B400AF4FF0B043F4
:10B9B000D3F894304FF0B04243F00103C2F8943012
:10B9C00000BFBD465DF8047B704780B400AF4FF008
:10B9D000B043D3F894304FF0B04223F00103C2F8E3
:10B9E000943000BFBD465DF8047B704780B400AF63
:10B9F0004FF0B043D3F8943003F00203022B01D18F
:10BA0000012300E000231846BD465DF8047B704723
:10BA100080B400AF4FF0B043D3F894304FF0B04251
:10BA200043F00403C2F8943000BFBD465DF8047BC8
:10BA3000704780B400AF4FF0B043D3F894304FF06C
:10BA4000B04223F00403C2F8943000BFBD465DF855
:10BA5000047B704780B400AF4FF0B043D3F894300C
:10BA600003F00803082B01D1012300E0002318464E
:10BA7000BD465DF8047B704780B483B000AF78604A
:10BA80004FF0B043D3F8943023F470627B681B020C
:10BA90004FF0B0411343C1F8943000BF0C37BD469E
:10BAA0005DF8047B704780B400AF4FF0B0431B6873
:10BAB0004FF0B04243F00103136000BFBD465DF894
:10BAC000047B704780B400AF4FF0B0431B684FF069
:10BAD000B04223F00103136000BFBD465DF8047B54
:10BAE000704780B400AF4FF0B0431B6803F002030F
:10BAF000022B01D1012300E000231846BD465DF86A
:10BB0000047B704780B483B000AF78604FF0B043DF
:10BB10001B6823F0F0024FF0B0417B6813430B60C9
:10BB200000BF0C37BD465DF8047B704780B483B01E
:10BB300000AF4FF0B0431B6803F0F0037B607B68FD
:10BB4000B02B01D9B0237B607B6818460C37BD460B
:10BB50005DF8047B704780B483B000AF78604FF02D
:10BB6000B0435B6823F47F427B681B024FF0B04117
:10BB700013434B6000BF0C37BD465DF8047B704734
:10BB800080B483B000AF78604FF0B0439B6823F07F
:10BB900003024FF0B0417B6813438B6000BF0C374A
:10BBA000BD465DF8047B704780B400AF4FF0B043F2
:10BBB0009B6803F00C031846BD465DF8047B704794
:10BBC00080B483B000AF78604FF0B0439B6823F03F
:10BBD000F0024FF0B0417B6813438B6000BF0C371D
:10BBE000BD465DF8047B704780B483B000AF7860D9
:10BBF0004FF0B043D3F8083123F0F0024FF0B041DA
:10BC00007B681343C1F8083100BF0C37BD465DF8AF
:10BC1000047B704780B483B000AF78604FF0B043CE
:10BC2000D3F8083123F00F027B681B094FF0B041B5
:10BC30001343C1F8083100BF0C37BD465DF8047BE3
:10BC4000704780B483B000AF78604FF0B0439B681A
:10BC500023F4E0624FF0B0417B6813438B6000BF78
:10BC60000C37BD465DF8047B704780B483B000AFED
:10BC700078604FF0B0439B6823F460524FF0B041BE
:10BC80007B6813438B6000BF0C37BD465DF8047BB7
:10BC9000704780B400AF4FF0B0439B6803F0F003EF
:10BCA0001846BD465DF8047B704780B400AF4FF086
:10BCB000B043D3F8083103F0F0031846BD465DF8F1
:10BCC000047B704780B400AF4FF0B043D3F8083125
:10BCD0001B0103F0F0031846BD465DF8047B704776
:10BCE00080B400AF4FF0B0439B6803F4E0631846A4
:10BCF000BD465DF8047B704780B400AF4FF0B043A1
:10BD00009B6803F460531846BD465DF8047B70479A
:10BD100080B400AF4FF0B0431B684FF0B04243F027
:10BD20008073136000BFBD465DF8047B704780B42C
:10BD300000AF4FF0B0431B684FF0B04223F0807368
:10BD4000136000BFBD465DF8047B704780B400AF50
:10BD50004FF0B0431B6803F00073B3F1007F01D1D3
:10BD6000012300E000231846BD465DF8047B7047C0
:10BD700080B400AF4FF0B043DB681B0A03F07F03D1
:10BD80001846BD465DF8047B704780B400AF4FF0A5
:10BD9000B043DB6803F060431846BD465DF8047BA2
:10BDA000704780B400AF4FF0B043DB6803F070031E
:10BDB0001846BD465DF8047B704780B400AF4FF075
:10BDC000B043DB6803F003031846BD465DF8047B0F
:10BDD000704780B400AF4FF0B0439B6803F48033EA
:10BDE000B3F5803F01D1012300E000231846BD4692
:10BDF0005DF8047B704780B400AF4FF0B043D3F8D8
:10BE0000083103F40033B3F5003F01D1012300E012
:10BE100000231846BD465DF8047B704780B400AF30
:10BE20004FF0B043D3F8083103F48033B3F5803FCB
:10BE300001D1012300E000231846BD465DF8047BD4
:10BE4000704780B400AF4FF0B0439B6803F40033F9
:10BE5000B3F5003F01D1012300E000231846BD46A1
:10BE60005DF8047B704780B400AF4FF0B0439B682F
:10BE700003F48023B3F5802F01D1012300E00023D8
:10BE80001846BD465DF8047B7047000090B58DB044
:10BE900000AF78607B68002B01D1012363E37B68EE
:10BEA0001B6803F02003002B00F08D80FFF77CFE61
:10BEB000F862FFF782FFB862FB6A002B05D0FB6ACD
:10BEC0000C2B47D1BB6A012B44D17B68DB69002B6B
:10BED00001D1012347E37B685C6AFFF727FE034635
:10BEE0009C4214D97B685B6A184600F081FD0346CA
:10BEF000002B01D0012336E37B685B6A1846FFF70D
:10BF000001FE7B681B6A1846FFF725FE13E07B687D
:10BF10005B6A1846FFF7F6FD7B681B6A1846FFF759
:10BF20001AFE7B685B6A184600F062FD0346002B30
:10BF300001D0012317E300F0C9FC0346A44A1360B3
:10BF4000A44B1B6818461BF00FFA0346002B39D090
:10BF5000012308E37B68DB69002B1ED0FFF7A3FDFC
:10BF6000FCF784F9786208E0FCF780F902467B6A06
:10BF7000D31A022B01D90323F5E2FFF7B2FD0346E2
:10BF8000002BF1D07B685B6A1846FFF7BBFD7B682E
:10BF90001B6A1846FFF7DFFD15E0FFF793FDFCF77E
:10BFA00065F9786208E0FCF761F902467B6AD31A0A
:10BFB000022B01D90323D6E2FFF793FD0346002BA2
:10BFC000F1D100E000BF7B681B6803F00103002B88
:10BFD00047D0FFF7E9FD3862FFF7EFFEF8613B6AF3
:10BFE000082B05D03B6A0C2B08D1FB69032B05D12C
:10BFF0007B685B68002B34D10123B4E27B685B680B
:10C00000B3F5803F02D1FFF7D0FB01E0FFF7DCFB87
:10C010007B685B68002B12D0FCF728F9786208E097
:10C02000FCF724F902467B6AD31A642B01D9032357
:10C0300099E2FFF7D8FB0346002BF1D011E0FCF7A3
:10C0400015F9786208E0FCF711F902467B6AD31A09
:10C05000642B01D9032386E2FFF7C5FB0346002BBF
:10C06000F1D17B681B6803F00203002B4CD0FFF773
:10C070009BFDB861FFF7A1FE7861BB69042B05D079
:10C08000BB690C2B0ED17B69022B0BD17B68DB6863
:10C09000002B01D1012366E27B681B691846FFF77C
:10C0A000E4FB31E07B68DB68002B19D0FFF7ADFBC8
:10C0B000FCF7DCF8786208E0FCF7D8F802467B6A07
:10C0C000D31A022B01D903234DE2FFF7BCFB034631
:10C0D000002BF1D07B681B691846FFF7C6FB13E005
:10C0E000FFF7A2FBFCF7C2F8786208E0FCF7BEF8A5
:10C0F00002467B6AD31A022B01D9032333E2FFF7EE
:10C10000A2FB0346002BF1D17B681B6803F00803F8
:10C11000002B06D17B681B6803F01003002B00F096
:10C12000A3807B685B69002B76D07B681B6803F07B
:10C130001003002B46D0FFF759FC0346002B13D108
:10C14000FFF732FCFCF792F8786208E0FCF78EF813
:10C1500002467B6AD31A022B01D9032303E2FFF7BD
:10C1600045FC0346002BF1D0FFF752FCFCF77EF8AC
:10C17000786208E0FCF77AF802467B6AD31A032B50
:10C1800001D90323EFE1FFF765FC0346002BF1D053
:10C190007B689B691846FFF76FFCFFF716FCFCF7FE
:10C1A00065F8786208E0FCF761F802467B6AD31A0A
:10C1B000022B01D90323D6E1FFF718FC0346002B1D
:10C1C000F1D151E0FFF7F0FBFCF750F878620CE09A
:10C1D000FC02002008000020FCF748F802467B6AB9
:10C1E000D31A022B01D90323BDE1FFF7FFFB03465E
:10C1F000002BF1D0FFF71DFC08E0FCF737F80246F2
:10C200007B6AD31A032B01D90323ACE1FFF722FC8D
:10C210000346002BF1D127E0FFF70BFCFCF726F8D3
:10C22000786208E0FCF722F802467B6AD31A032BF7
:10C2300001D9032397E1FFF70DFC0346002BF1D151
:10C24000FFF7C3FBFCF712F8786208E0FCF70EF882
:10C2500002467B6AD31A022B01D9032383E1FFF73D
:10C26000C5FB0346002BF1D17B681B6803F0040378
:10C27000002B5BD0A74B1B6803F48073002B14D1F9
:10C28000FFF754FAFBF7F2FF786208E0FBF7EEFFE6
:10C2900002467B6AD31A022B01D9032363E19D4B2B
:10C2A0001B6803F48073002BF0D07B689B68012B24
:10C2B00002D1FFF723FB0CE07B689B68052B04D1C0
:10C2C000FFF73EFBFFF71AFB03E0FFF728FBFFF742
:10C2D00048FB7B689B68002B14D0FBF7C7FF786294
:10C2E0000AE0FBF7C3FF02467B6AD31A41F28832A9
:10C2F000934201D9032336E1FFF744FB0346002BA9
:10C30000EFD013E0FBF7B2FF78620AE0FBF7AEFF75
:10C3100002467B6AD31A41F28832934201D9032341
:10C3200021E1FFF72FFB0346002BEFD17B681B6851
:10C3300003F04003002B2CD07B689B6A002B14D0A9
:10C34000FFF7A8FAFBF792FF786208E0FBF78EFF91
:10C3500002467B6AD31A022B01D9032303E1FFF7BC
:10C36000BBFA0346002BF1D013E0FFF7A4FAFBF76A
:10C370007DFF786208E0FBF779FF02467B6AD31AFB
:10C38000022B01D90323EEE0FFF7A6FA0346002BA8
:10C39000F1D17B68DB6A002B00F0E480FFF704FC3E
:10C3A00038614FF0B043DB68FB607B68DB6A022BCF
:10C3B00040F0B480FB6803F003027B681B6B9A4279
:10C3C00023D1FB6803F070027B685B6B9A421CD13F
:10C3D000FB681B0A03F07F027B689B6B9A4214D1B7
:10C3E000FB6803F478127B68DB6B9A420DD1FB6823
:10C3F00003F060627B681B6C9A4206D1FB6803F015
:10C4000060427B685B6C9A425DD03B690C2B58D0D4
:10C410004FF0B0431B6803F08063002B01D0012371
:10C42000A1E0FFF784FCFBF721FF786208E0FBF74F
:10C430001DFF02467B6AD31A022B01D9032392E027
:10C440004FF0B0431B6803F00073002BEFD14FF0A7
:10C45000B043DA68304B13407A68116B7A68526BDC
:10C4600011437A68926B120211437A68D26B1143BE
:10C470007A68126C11437A68526C0A434FF0B041EB
:10C480001343CB60FFF744FC4FF0B043DB684FF041
:10C49000B04243F08053D360FBF7E8FE786208E0D7
:10C4A000FBF7E4FE02467B6AD31A022B01D9032371
:10C4B00059E04FF0B0431B6803F00073002BEFD03E
:10C4C00050E001234FE04FF0B0431B6803F00073CE
:10C4D000002B47D1FFF71CFC4FF0B043DB684FF057
:10C4E000B04243F08053D360FBF7C0FE786208E0AF
:10C4F000FBF7BCFE02467B6AD31A022B01D9032349
:10C5000031E04FF0B0431B6803F00073002BEFD015
:10C5100028E000BF000400588C80C1113B690C2B3F
:10C520001ED0FFF704FCFBF7A1FE786208E0FBF7E2
:10C530009DFE02467B6AD31A022B01D9032312E027
:10C540004FF0B0431B6803F00073002BEFD14FF0A6
:10C55000B043DA684FF0B041054B1340CB6001E0C7
:10C56000012300E0002318463437BD4690BD00BFCC
:10C57000FCFFFEEE80B584B000AF786039607B6868
:10C58000002B01D101232DE1984B1B6803F0070319
:10C590003A689A421BD9954B1B6823F007029349CE
:10C5A0003B6813430B60FBF761FEF86008E0FBF7A4
:10C5B0005DFE0246FB68D31A022B01D9032311E169
:10C5C0008A4B1B6803F007033A689A42EFD17B68F5
:10C5D0001B6803F00203002B16D07B689B6818468B
:10C5E000FFF7EEFAFBF742FEF86008E0FBF73EFECD
:10C5F0000246FB68D31A022B01D90323F2E0FFF7AE
:10C60000E8FB0346002BF1D07B681B6803F0200396
:10C61000002B16D07B685B691846FFF7E5FAFBF73D
:10C6200025FEF86008E0FBF721FE0246FB68D31AFE
:10C63000022B01D90323D5E0FFF7DDFB0346002BD6
:10C64000F1D07B681B6803F04003002B16D07B6899
:10C650009B691846FFF7DEFAFBF708FEF86008E072
:10C66000FBF704FE0246FB68D31A022B01D9032311
:10C67000B8E0FFF7D3FB0346002BF1D07B681B68C3
:10C6800003F00403002B16D07B68DB681846FFF725
:10C69000D8FAFBF7EBFDF86008E0FBF7E7FD024690
:10C6A000FB68D31A022B01D903239BE0FFF7C9FBD8
:10C6B0000346002BF1D07B681B6803F00803002BB6
:10C6C00017D07B681B69DB001846FFF7CEFAFBF733
:10C6D000CDFDF86008E0FBF7C9FD0246FB68D31A00
:10C6E000022B01D903237DE0FFF7BDFB0346002B9E
:10C6F000F1D07B681B6803F00103002B43D07B68FB
:10C700005B68022B06D1FFF76EF80346002B1ED1A3
:10C71000012367E07B685B68032B06D1FFF716FBFC
:10C720000346002B13D101235CE07B685B68002B80
:10C7300006D1FFF7D6F90346002B08D1012351E0BB
:10C74000FFF781F80346002B01D101234AE07B6803
:10C750005B681846FFF714FAFBF788FDF8600AE0FB
:10C76000FBF784FD0246FB68D31A41F288329342FC
:10C7700001D9032336E0FFF717FA02467B685B68AE
:10C780009B009A42ECD1194B1B6803F007033A68EF
:10C790009A421BD2154B1B6823F0070213493B68D2
:10C7A00013430B60FBF762FDF86008E0FBF75EFDEA
:10C7B0000246FB68D31A022B01D9032312E00B4B6C
:10C7C0001B6803F007033A689A42EFD100F07EF845
:10C7D0000346074A1360FBF755FD034618461AF057
:10C7E000C3FD034618461037BD4680BD00400058C3
:10C7F000FC02002090B585B000AFFFF7D5F9786056
:10C800007B68002B0AD1FFF791F903461B0903F05F
:10C810000F032B4A52F82330FB604BE07B68042B5C
:10C8200002D1284BFB6045E07B68082B0AD1FEF75C
:10C830009BFF0346012B02D1224BFB603AE0224BC7
:10C84000FB6037E0FFF7B9FA38603B68022B03D092
:10C850003B68032B03D00DE01A4BBB6015E0FEF7DD
:10C8600083FF0346012B02D1164BBB600DE0164B34
:10C87000BB600AE0FFF75AF903461B0903F00F03F8
:10C880000F4A52F82330BB6000BFFFF771FA02462F
:10C89000BB6803FB02F4FFF784FA03461B0901336C
:10C8A000B4FBF3F4FFF771FA03465B0F0133B4FBFB
:10C8B000F3F3FB60FB6818461437BD4690BD00BF1C
:10C8C00050FB02080024F4000048E80198B500AFCE
:10C8D000FFF790FF0446FFF7DCF903461B0903F05E
:10C8E0000F03034A52F82330B4FBF3F3184698BD04
:10C8F000F0FA020898B500AFFFF7E8FF0446FFF72B
:10C90000EFF903461B0A03F00703044A52F82330E9
:10C9100003F01F0324FA03F3184698BD30FB020806
:10C9200098B500AFFFF7D2FF0446FFF7E5F90346DD
:10C93000DB0A03F00703044A52F8233003F01F0315
:10C9400024FA03F3184698BD30FB020880B582B084
:10C9500000AF786039607B686F221A60FFF724F9B6
:10C9600002467B685A60FFF794F902467B689A603A
:10C97000FFF7B6F902467B68DA60FFF7BDF90246B9
:10C980007B681A61FFF791F902467B685A61FFF7ED
:10C9900099F902467B689A61044B1B6803F0070211
:10C9A0003B681A6000BF0837BD4680BD0040005894
:10C9B00080B500AFFEF7EAFE00BF80BD80B500AFD6
:10C9C0004FF0B043DB6903F48073B3F5807F06D189
:10C9D00000F007F84FF0B0434FF480721A6200BFC6
:10C9E00080BD80B400AF00BFBD465DF8047B7047DA
:10C9F00090B585B000AF78607B68B02B03D9154B3C
:10CA0000DB6AFB6007E07B681B0903F00F03114A38
:10CA100052F82330FB60FFF755F903461B0903F07A
:10CA20000F030D4A52F82330FA68B2FBF3F3BB60F0
:10CA3000BB680A4AA2FB03239C0CFEF787FE034651
:10CA40001946204600F00CF8034618461437BD4638
:10CA500090BD00BF50FB0208F0FA020883DE1B43C2
:10CA600090B593B000AF78603960374B07F1280478
:10CA70000FCB84E80F00354A07F11C0307CA83E88F
:10CA80000700334B07F10C040FCB84E80F000023A1
:10CA90007B643B68B3F5007F1AD100233B6413E04D
:10CAA0003B6C9B0048333B4453F8203C7A689A42E5
:10CAB00007D83B6C9B0048333B4453F83C3C7B64B9
:10CAC00020E03B6C01333B643B6C032BE8D919E05D
:10CAD0000023FB6313E0FB6B9B0048333B4453F89C
